:020000040800F2
:10000000480B00209D010008051800088D1300080A
:1000100000000000000000000000000000000000E0
:100020000000000000000000000000006F1C00083D
:10003000000000000000000009180008C11C0008B2
:10004000AF01000800000000AF010008AF01000888
:10005000AF010008AF010008AF010008AF010008C0
:1000600000000000AF010008AF010008AF01000868
:10007000AF010008AF010008AF0100080000000058
:10008000AF0100080000000000000000AF01000800
:1000900000000000AF010008AF010008AF01000838
:1000A000AF010008AF010008AF010008AF01000870
:1000B000AF01000800000000000000000000000088
:1000C00000F002F800F03EF80CA030C80838241800
:1000D0002D18671EA246AB4654465D46AC4201D180
:1000E00000F030F87E460F3EB6460FCC0126334274
:1000F00000D0FB1A3343A246AB46184748280000FD
:1001000068280000103A02D378C878C1FAD852079C
:1001100001D330C830C101D504680C6070470000BD
:100120000023002400250026103A01D378C1FBD813
:10013000520700D330C100D50B6070471FB51FBDFB
:1001400010B510BD00F061F91146FFF7F7FF02F09E
:1001500015FB00F079F903B4FFF7F2FF03BC00F0E0
:100160007FF9000070B505460C46164602E00FCC3C
:100170000FC5103E102EFAD2082E02D303CC03C5B1
:10018000083E042E07D301CC01C5361F03E02178B9
:100190002970641C6D1C761EF9D270BD074880471B
:1001A00007480047FEE7FEE7FEE7FEE7FEE7FEE75B
:1001B00004480549054A064B70470000471D0008E2
:1001C000C100000848050020480B00204807002017
:1001D00048070020F8B5042A2CD3830712D00B78E7
:1001E000491C0370401C521E83070BD00B78491C1E
:1001F0000370401C521E830704D00B78491C037007
:10020000401C521E8B079B0F05D0C91ADF0020230C
:10021000DE1B08C90AE0FFF7A5FFF8BD1D4608C9A7
:10022000FD401C46B4402C4310C0121F042AF5D2D6
:10023000F308C91A521EF0D40B78491C0370401CF5
:10024000521EEAD40B78491C0370401C012AE4D4E6
:1002500009780170F8BD01E004C0091F0429FBD230
:100260008B0701D50280801CC90700D0027070473F
:1002700000290BD0C30702D00270401C491E02297E
:1002800004D3830702D50280801C891EE3E7002285
:10029000EEE70022DFE70000002203098B422CD3A7
:1002A000030A8B4211D300239C464EE003460B43C6
:1002B0003CD4002243088B4231D303098B421CD328
:1002C000030A8B4201D394463FE0C3098B4201D31A
:1002D000CB01C01A524183098B4201D38B01C01A52
:1002E000524143098B4201D34B01C01A52410309C9
:1002F0008B4201D30B01C01A5241C3088B4201D378
:10030000CB00C01A524183088B4201D38B00C01A24
:10031000524143088B4201D34B00C01A5241411A4B
:1003200000D201465241104670475DE0CA0F00D02E
:100330004942031000D3404253409C460022030927
:100340008B422DD3030A8B4212D38901FC2212BAAD
:10035000030A8B420CD3890192118B4208D3890185
:1003600092118B4204D389013AD0921100E089099D
:10037000C3098B4201D3CB01C01A524183098B427E
:1003800001D38B01C01A524143098B4201D34B0167
:10039000C01A524103098B4201D30B01C01A5241CA
:1003A000C3088B4201D3CB00C01A524183088B4251
:1003B00001D38B00C01A5241D9D243088B4201D3DA
:1003C0004B00C01A5241411A00D201465241104618
:1003D00063465B1001D34042002B00D54942704771
:1003E00063465B1000D3404201B50549002802DC9A
:1003F000491C084000E00846C046C04602BD00BF98
:10040000FFFFFF7F704770477047754600F024F884
:10041000AE46050069465346C008C000854618B080
:1004200020B5FFF7C5FE60BCB64600260027C0C554
:10043000C0C5C0C5C0C5C0C5C0C5C0C5C0C5403D9C
:10044000490849008D46704710B50446C046C0466D
:100450002046FFF780FE10BD0048704710000020C6
:1004600001491820ABBEFEE726000200704781B0AC
:10047000EFF3108072B60090FFE7FEE780B584B01E
:10048000039000F09DF90290039801900198401CA0
:10049000002806D0FFE7D048017801984018019065
:1004A000FFE7FFE700F08CF90299401A01998842B2
:1004B00001D2FFE7F6E704B080BDC0468AB00990DC
:1004C000089100200790FFE7089800680799C84046
:1004D000002800D147E108980068079A012191405F
:1004E000084006900698002800D138E10898406836
:1004F00003210840012807D0FFE70898406803213E
:10050000084002282CD1FFE70998806805900798D9
:100510004000032181400598884305900898C168F0
:10052000079840008140059808430590059809996F
:1005300088600998406805900798012181400598D6
:1005400088430590089840681021084001090798E1
:100550008140059808430590059809994860FFE790
:100560000898406803210840032816D0FFE709983F
:10057000C068059007984000032181400598884392
:1005800005900898816807984000814005980843C5
:10059000059005980999C860FFE70898406803210D
:1005A0000840022820D1FFE709980799C908890067
:1005B0004018006A059007984007C00E0F2181403F
:1005C0000598884305900898016907984007C00E70
:1005D000814005980843059005980999079AD20823
:1005E000920089180862FFE709980068059007984B
:1005F0004100032002468A400599914305910899DC
:1006000049680140079840008140059808430590DB
:10061000059809990860089880798007002800D11A
:100620009CE007980321884350494058059007985B
:100630008007C00E0F2181400598884305900998D6
:1006400005210907884203D1FFE70020049022E03A
:1006500009984749884203D1FFE70120039017E03A
:1006600009984449884203D1FFE7022002900CE038
:100670000999414A0320052300939142019001D03A
:100680000098019001980290FFE702980390FFE71D
:1006900003980490FFE7049907988007C00E8140F3
:1006A00005980843059005980799032291432F4A1E
:1006B000885032480068059006990598884305904F
:1006C00008988079C006002805D5FFE706990598A7
:1006D00008430590FFE70598284908602848006806
:1006E00005900699059888430590089880798006BA
:1006F000002805D5FFE70699059808430590FFE710
:1007000005981F4908601F480068059006990598DC
:1007100088430590089880798007002805D5FFE771
:100720000699059808430590FFE705981549086064
:100730001548006805900699059888430590089823
:100740008079C007002805D0FFE70699059808437F
:100750000590FFE705980C490860FFE7FFE7079859
:10076000401C0790B0E60AB07047C04660180240CF
:100770000004005000080050000C00500018024017
:1007800004180240841802408018024084B000918E
:1007900001460098039102A908800398006909881E
:1007A000084204D0FFE701A90120087003E001A975
:1007B00000200870FFE701A8007804B0704700002F
:1007C000064800687047C046314802780349086807
:1007D000801808607047C0460400002040050020D3
:1007E00080B582B001A900200870EE490868012296
:1007F000120210430860032000F00EF8002804D015
:10080000FFE701A90120087002E000F043F8FFE7CC
:1008100001A8007802B080BD80B584B0039002A921
:10082000002008701A480078002829D0FFE7E14826
:1008300000680190164801787D20C000FFF72CFD6C
:1008400001460198FFF728FD00F098FD002812D11D
:10085000FFE70398032809D8FFE703990022D04354
:1008600000F036F80398D449086003E002A901209B
:100870000870FFE703E002A901200870FFE703E02A
:1008800002A901200870FFE702A8007804B080BD2B
:100890000400002082B0FFE70B48026801210A43F0
:1008A00002600068084001900198FFE7FFE70748F1
:1008B0000268012109070A430260006808400090AD
:1008C0000098FFE702B07047401002403C10024021
:1008D00080B584B0034603A8037002910192002101
:1008E0004056029901F05AFD04B080BD80B584B035
:1008F00002901A490868032252029043029A104358
:10090000086002980121490288421ED1FFE7A948E8
:100910000168062048431249FFF7BEFC401C0190C5
:10092000FFE710480068400500280DD5FFE7019853
:10093000002804D0FFE70198401E019003E003A9BE
:100940000320087005E0ECE7FFE703A9002008702A
:10095000FFE703A8007804B080BDC04600700040E7
:1009600040420F001470004080B584B002900191A5
:100970000298002804D1FFE703A9012008700CE1C8
:1009800001988849096807221140884221D9FFE768
:100990008449086807229043019A10430860FFF7D2
:1009A0000FFF0090FFE77F4800680721084001998A
:1009B00088420DD0FFE7FFF703FF0099401A7F49F7
:1009C000884204D3FFE703A903200870E5E0EAE7C3
:1009D000FFE7029800788007002817D5FFE7029804
:1009E00000784007002807D5FFE7B84908680722C4
:1009F000120310430860FFE7B44908680F2212028F
:100A00009043029A926810430860FFE702980078CA
:100A1000C007002872D0FFE70298406801280BD178
:100A2000FFE7AE4800688003002804D4FFE703A96D
:100A300001200870B1E03DE00298406802280BD127
:100A4000FFE7A64800688001002804D4FFE703A957
:100A500001200870A1E02CE00298406800280BD12A
:100A6000FFE79E4800684005002804D4FFE703A97B
:100A70000120087091E01BE00298406803280BD128
:100A8000FFE74A4800688007002804D4FFE703A96D
:100A90000120087081E00AE04348006880070028D0
:100AA00004D4FFE703A90120087076E0FFE7FFE721
:100AB000FFE7FFE78549086807229043029A5268DA
:100AC00010430860FFF77CFE0090FFE77F48006856
:100AD0003821084002994968C90088420DD0FFE7D3
:100AE000FFF76EFE0099401A3449884204D3FFE7AD
:100AF00003A90320087050E0E8E7FFE701982949BF
:100B0000096807221140884221D2FFE72549086879
:100B100007229043019A10430860FFF751FE0090AE
:100B2000FFE72048006807210840019988420DD05E
:100B3000FFE7FFF745FE0099401A2049884204D399
:100B4000FFE703A90320087027E0EAE7FFE7029820
:100B50000078400700280AD5FFE75C4908680722AB
:100B600012039043029AD26810430860FFE700F036
:100B700027F8564909680F22120211408A090C49C8
:100B800089581F221140C8400A4908600A48006875
:100B9000FFF742FE03A90870FFE703A8007804B03E
:100BA00080BDC046002002405C1002406010024040
:100BB000B42700080000002008000020891300006E
:100BC00080B588B0414800688006400F00280FD1EA
:100BD000FFE7424800680721C9020840C10A012016
:100BE0008840039003993C48FFF756FB029069E068
:100BF0003648006838210840082803D1FFE7354807
:100C000002905EE0314800683821084010283CD14D
:100C1000FFE72F4801680322114006910068702108
:100C200008400009401C049006980190022812D048
:100C3000FFE7019803280FD1FFE704992548FFF744
:100C40002BFB0146224800687F2212021040000A56
:100C5000484307900EE0FFE704991F48FFF71CFB8D
:100C600001461B4800687F2212021040000A4843D8
:100C70000790FFE716480068400F401C0590079852
:100C80000599FFF709FB02901AE010480068382127
:100C90000840202804D1FFE70120C00302900EE0A5
:100CA0000A48006838210840182804D1FFE77D2051
:100CB0000002029002E000200290FFE7FFE7FFE75A
:100CC000FFE7FFE7029808B080BDC0460810024069
:100CD0000C10024000127A000024F40000100240C0
:100CE00010B588B006900698002804D1FFE707A940
:100CF000012008702AE306980078C007002800D178
:100D000088E0FC480068382108400490FA480068F0
:100D10000321084003900498102804D1FFE70398AA
:100D2000032804D0FFE70498082810D1FFE7F8480B
:100D300000688003002809D5FFE70698406800286E
:100D400004D1FFE707A901200870FFE261E0FFE797
:100D50000698406801210904884207D1FFE7EC4961
:100D6000086801221204104308601DE006984068DC
:100D70000521090488420BD1FFE7E54908680122F3
:100D800093041843086008681204104308600AE0DE
:100D9000DF49086801221304984308600868920438
:100DA00090430860FFE7FFE7FFE7069840680028E8
:100DB00017D0FFE7FFF704FD0590FFE7D448006870
:100DC000800300280CD4FFE7FFF7FAFC0599401ACE
:100DD000652804D3FFE707A903200870B6E2EDE712
:100DE00016E0FFF7EDFC0590FFE7C94800688003B7
:100DF00000280CD5FFE7FFF7E3FC0599401A6528AA
:100E000004D3FFE707A9032008709FE2EDE7FFE79F
:100E1000FFE7FFE7069800788007002800D4A3E0EA
:100E2000B4480068382108400490B34800680321A2
:100E3000084003900498102804D1FFE70398022883
:100E400004D0FFE7049800283BD1FFE7B0480068D2
:100E50004005002809D5FFE70698C068002804D19E
:100E6000FFE707A90120087070E2AA4908687F22FD
:100E700012029043069A52691202104308600498C5
:100E8000002811D1FFE7A24802680721C9028A435E
:100E9000069B1B691A43026000680840C10A9E480D
:100EA000C8409E490860FFE79D480068FFF7B4FC12
:100EB000002804D0FFE707A90120087046E2FFE7F9
:100EC00051E00698C06800282FD0FFE790490868D5
:100ED0000722D2029043069A1269104308600868FC
:100EE0000122120210430860FFF76AFC0590FFE739
:100EF00087480068400500280CD4FFE7FFF760FC36
:100F00000599401A032804D3FFE707A903200870B6
:100F10001CE2EDE77F4908687F2212029043069A9F
:100F200052691202104308601CE0794908680122E6
:100F3000120290430860FFF743FC0590FFE77448F6
:100F40000068400500280CD5FFE7FFF739FC05993C
:100F5000401A032804D3FFE707A903200870F5E12E
:100F6000EDE7FFE7FFE7FFE70698007800070028B6
:100F700056D5FFE7F748006838210840182810D1F7
:100F8000FFE7F74800688007002809D5FFE70698C3
:100F90008069002804D1FFE707A901200870D5E186
:100FA0003DE00698806900281CD0FFE7EC490868FE
:100FB000012210430860FFF703FC0590FFE7E848B3
:100FC0000068800700280CD4FFE7FFF7F9FB0599BC
:100FD000401A032804D3FFE707A903200870B5E1EE
:100FE000EDE71BE0DE490868012290430860FFF747
:100FF000E7FB0590FFE7DA480068800700280CD57A
:10100000FFE7FFF7DDFB0599401A032804D3FFE74C
:1010100007A90320087099E1EDE7FFE7FFE7FFE785
:10102000069800784007002800D4CAE002A90020F2
:101030000870C848006838210840202810D1FFE710
:10104000CA4800688007002809D5FFE7069880682D
:10105000002804D1FFE707A90120087076E1AFE07E
:10106000C0480068C000002810D4FFE7FFE7BD4873
:101070000268012109070A430260006808400190E4
:101080000198FFE702A901200870FFE7B648006851
:10109000C00500281DD4FFE7B349086801221202E9
:1010A00010430860FFF78CFB0590FFE7AE4800682F
:1010B000C00500280CD4FFE7FFF782FB0599401A12
:1010C000032804D3FFE707A9032008703EE1EDE7FA
:1010D000FFE7FFE706988068012806D1FFE7A349EC
:1010E000086801221043086027E0069880680528F8
:1010F00018D103E0081002400C1002409B49086818
:10110000042210430860086801221043086013E0BD
:1011100000100240041002400024F40000000020EF
:10112000080000209149086801229043086008687F
:10113000042290430860FFE7FFE7FFE70698806816
:10114000002818D0FFE7FFF73BFB0590FFE7874833
:101150000068800700280DD4FFE7FFF731FB0599F1
:10116000401A8349884204D3FFE707A90320087087
:10117000ECE0ECE717E0FFF723FB0590FFE77B4887
:101180000068800700280DD5FFE7FFF719FB0599D8
:10119000401A7749884204D3FFE707A90320087063
:1011A000D4E0ECE7FFE702A80078012807D1FFE7C9
:1011B0006C4908680122120790430860FFE7FFE7C7
:1011C000FFE70698C069002800D1BBE061480068CD
:1011D00038210840102876D0FFE70698C069022819
:1011E0004ED1FFE75D49086801221206904308606E
:1011F000FFF7E6FA0590FFE75848006880010028ED
:101200000CD5FFE7FFF7DCFA0599401A032804D351
:10121000FFE707A90320087098E0EDE74E4908684A
:10122000554A1040069B1A6A5C6A22439C6A240253
:101230002243DC6A22431B6B1A4310430860474B6E
:10124000186801221406204318600868120710432A
:101250000860FFF7B5FA0590FFE740480068800195
:1012600000280CD4FFE7FFF7ABFA0599401A0328D2
:1012700004D3FFE707A90320087067E0EDE721E04A
:10128000364908680122120690430860FFF798FA71
:101290000590FFE731480068800100280CD5FFE782
:1012A000FFF78EFA0599401A032804D3FFE707A930
:1012B000032008704AE0EDE7274908682D4A1040EE
:1012C0000860FFE73DE00698C069012804D1FFE708
:1012D00007A90120087039E01F48006803900398AF
:1012E000032108400699096A884224D1FFE7039840
:1012F000702108400699496A88421CD1FFE703988B
:101300007F21090208400699896A0902884212D1A0
:10131000FFE703981F21490408400699C96A8842DB
:1013200009D1FFE703980721490708400699096B8F
:10133000884204D0FFE707A90120087006E0FFE714
:10134000FFE7FFE707A900200870FFE707A800787C
:1013500008B010BD081002400C10024000100240FE
:10136000601002403C100240007000405C100240DF
:1013700089130000FCFFFEEF8C80C11F80B582B096
:101380000190019800F074FC02B080BDFFE7FEE719
:1013900080B584B0D749039108682E4A0192104065
:1013A000086000F01BF803990868012213030293F8
:1013B000984308600868D2021043086000F00EF8F5
:1013C000019B029A03990868184008600868104356
:1013D000086000F003F804B080BDC04686B000206D
:1013E00005900490FFE704990598820789088B18F7
:1013F000810800207C22D21A884109D3FFE7FFE749
:10140000059804990022491C504104910590EAE78F
:1014100006B0704780B582B0F949019108680D4A5D
:10142000009210400860FFF7D9FF01990868012277
:101430001303184308600868D20210430860FFF7DE
:10144000CDFF009A0199086810400860FFF7C6FFB9
:1014500002B080BDFFF7FFFF80B586B005A9002070
:10146000087004A90870FFE704A8007807282BDC9F
:10147000FFE70598400005A90870E1490291086856
:1014800001220392D202019290430860FFF7A6FF67
:10149000019A0299086810430860FFF79FFF0399BB
:1014A000052000070903FFF771F9002806D0FFE7C0
:1014B00005980121084305A90870FFE7FFE7049894
:1014C000401C04A90870CFE705A8007806B080BDCD
:1014D00010B586B004AC207003A80170029201A878
:1014E000037000F0D3F8002804D1FFE705A900201D
:1014F000087061E004A8007800F062F800F040F99C
:10150000002806D1FFE700F0F9F805A900200870CF
:1015100052E003A8007800F053F800F031F90028F9
:1015200006D1FFE700F0EAF805A90020087043E0C3
:1015300000F0ACF8002804D1FFE705A900200870EE
:101540003AE004A800780121084300F039F800F0DF
:1015500017F9002806D1FFE700F0D0F805A9002010
:10156000087029E0694600200880FFE76846008887
:1015700001A90978884217DAFFE7FFF76DFF0146F6
:10158000029A68460388D154008801A90978491E47
:10159000884203DAFFE7FFF7FBFEFFE7FFE700986B
:1015A000401C69460880E1E7FFF734FF00F0A6F829
:1015B00005A901200870FFE705A8007806B010BD56
:1015C00080B582B001A90870694600200870FFE765
:1015D0006846007807282EDCFFE789490868012261
:1015E000D20290430860FFF7F9FE01A800780006D8
:1015F000002807D5FFE7824908680122120310433B
:10160000086006E07E4908680122120390430860E2
:10161000FFE70198400001A9087079490868012294
:10162000D20210430860FFF7D9FEFFE70098401C84
:1016300069460870CCE702B080BDC04680B586B070
:10164000002005900490039002900190FFE70E485F
:10165000026801210A430260006808400090009877
:10166000FFE70320C00201901120029001200390A7
:10167000022004900520000701A9FEF71FFF00F0DB
:101680003DF806B080BDC0463410024080B584B03D
:101690005B4908680122D3021843086008681203F6
:1016A000029210430860FFF799FE02990520000797
:1016B000FFF76CF8002804D1FFE703A900200870A9
:1016C00013E04F49019108680B4A009210400860EE
:1016D000FFF784FE009A0199086810400860FFF740
:1016E0007DFE03A901200870FFE703A8007804B07D
:1016F00080BDC04614000050FFEFFFFF80B584B0EE
:101700003F49086801221303029398430860086860
:10171000D20210430860FFF761FE0299052000071E
:10172000FFF734F8002804D0FFE703A90020087071
:1017300021E0334908680122120301921043086036
:10174000FFF74CFE019905200007FFF71FF800285E
:1017500004D1FFE703A9002008700CE028490868BD
:1017600001220092120310430860FFF737FE009831
:1017700003A90870FFE703A8007804B080BDC04645
:1017800080B586B01E490391086801220192D202F9
:10179000029290430860FFF721FE019B029A039991
:1017A00008681B0304931843086008681043086026
:1017B000FFF714FE049905200007FEF7E7FF002855
:1017C0000CD0FFE70E4908680122D202904308605E
:1017D000FFF704FE05A9002008700CE0084908681E
:1017E00001220092D20290430860FFF7F7FD0098B3
:1017F00005A90870FFE705A8007806B080BDC046BF
:1018000014000050FFE7FEE77047000080B586B087
:101810000590049103923A480190FFE701980078FF
:10182000002803D1FFE700F08FFAFFE7FFE7EFF3AF
:101830001080012181F31088009005980499039A83
:1018400000F008F80290009880F31088029806B023
:1018500080BDC04680B58AB009900891079208986B
:1018600004900998182141432548401818300390E6
:10187000039840690290002808D0FFE702980128E9
:1018800019D0FFE7029802282CD032E0039800F02C
:10189000A5FA059005980799884203D2FFE7002032
:1018A000069007E00798069003980499079A00F0BD
:1018B00033FDFFE720E0039800F090FA05900598CB
:1018C0000799884203D2FFE70598019002E0079844
:1018D0000190FFE70198069003980499069A00F09A
:1018E0001BFD09E003980499079A00F0A5FC0690F7
:1018F00002E000200690FFE706980AB080BDC046CF
:101900007000002082B080B584B0079306920390E7
:10191000029106A80090039802996A4600F008F820
:101920000190019804B080BC02BC02B08E467047A2
:1019300080B5A4B023902291219207A81B9040204B
:101940001C9000201D9023991F911E90FFE7229864
:10195000017820A801702299491C22910078002862
:1019600001D1FFE76DE120A80078252800D05DE1D6
:101970000020189001201A90FFE72298017820A8F3
:1019800001700078233804900D2841D80498810014
:1019900001A040588746C046011A0008111A0008E5
:1019A000111A0008111A0008111A0008111A00086B
:1019B000111A0008111A0008F1190008111A00087C
:1019C000D1190008111A0008111A0008E1190008BD
:1019D00018980121084318902298401C22901AE080
:1019E00018980221084318902298401C229012E077
:1019F00018980421084318902298401C22900AE06D
:101A000018980821084318902298401C229002E060
:101A100000201A90FFE7FFE71A980028ADD1FFE7F2
:101A200000201790FFE72298017820A80170007825
:101A3000302805DBFFE720A800783A2801DBFFE724
:101A40000FE02298401C229017980A21414320A8B9
:101A50000078401830381790FFE701200028E2D1C5
:101A6000FFE7002019902298017820A801700078E3
:101A70002E2823D1FFE72298401C2290FFE72298CE
:101A8000017820A801700078302805DBFFE720A846
:101A900000783A2801DBFFE70FE02298401C2290F3
:101AA00019980A21414320A800784018303819902D
:101AB000FFE701200028E2D1FFE7FFE72298007846
:101AC00020A90870FFE720A800786C2805D0FFE760
:101AD00020A80078682808D1FFE72298401C2290AF
:101AE0002298007820A9087000E004E0FFE70120B8
:101AF0000028E8D1FFE720A800780390252800D12E
:101B00008AE00398582848D0FFE70398632814D048
:101B1000FFE7039864281ED0FFE7039870286BD076
:101B2000FFE70398732849D0FFE70398752823D06F
:101B3000FFE70398782830D073E0219A1068011DE0
:101B4000116000681A901A9906A8017001781BA804
:101B500000F038FB66E0219A1068011D11600068F2
:101B60001A901A99199B1798189A019200901BA81D
:101B70000A2200F052F955E0219A1068011D116007
:101B800000681A901A99199B1798189A0192009058
:101B90001BA80A2200F032FA44E0219A1068011DC5
:101BA000116000681A901A99199B1798189A019257
:101BB00000901BA8102200F021FA33E0219A10684F
:101BC000011D116000680590FFE70598017820A8C5
:101BD00001700599491C05910078002801D1FFE7A3
:101BE00009E020A801781BA800F0ECFAFFE71E9896
:101BF0000028EAD5FFE715E0219A1068011D116061
:101C000000681A901A9900200190082300931BA8DD
:101C1000102200F0F3F905E01BA8252100F0D2FA0C
:101C200000E0FFE72298401C229005E020A8017800
:101C30001BA800F0C7FAFFE7FFE71E98002800D4B2
:101C400085E61E9801280FDBFFE71D98002806D0C7
:101C5000FFE723981D9A07A9FFF7D8FDFFE71D9915
:101C60001E9840181E90FFE71E9824B080BD704754
:101C700080B584B002900298401E000E002803D068
:101C8000FFE70120039011E00298401E0949086017
:101C900000200190C043032100F080FB0198064919
:101CA0000860064A072111600390FFE7039804B01B
:101CB00080BDC04614E000E018E000E010E000E065
:101CC00080B5FEF781FD80BD10B594B007A80290E5
:101CD0003421FEF7DEFA0020009006900590049073
:101CE0000390012001904002FEF700FE009A019946
:101CF0000298022307930C020A940B9240240C943E
:101D00000E930F931092082211924A0412924907DF
:101D10001391FEF7E5FF002803D0FFE7FEF7A7FBCE
:101D2000FFE7072003900221049100200590069010
:101D300003A8FEF719FE002803D0FFE7FEF797FB84
:101D4000FFE714B010BD704780B582B01E48019007
:101D50000198A821FEF79DFA0199032008610199D5
:101D60004861019819498161019A1948D061019A25
:101D7000012080021062019A00209062019A506254
:101D8000019AD062019A1166019A12495166019A2C
:101D900010219166019908670199C8660199486701
:101DA0000090FFE700980F280BD8FFE7009A0A4839
:101DB000801AC07B01998854FFE70098401C00906E
:101DC000F0E702B080BDC046700000203A2900084C
:101DD0002801002018010020F427000884B0039097
:101DE0000398006902900398C068019002980199D5
:101DF000884209D8FFE7039880680199401A029940
:101E00004018401E009005E002990198C043401818
:101E10000090FFE7009804B07047B0B590B0159CF3
:101E2000149C0F900E910D920C930E98002804D5DF
:101E3000FFE70E984042099002E00E980990FFE7F4
:101E400009980A9001200B90FFE70A980D998842A3
:101E500009DBFFE70A980D99FEF728FA0A900B981C
:101E6000401C0B90F1E70C980B99884203D9FFE7CF
:101E70000C980B90FFE7149800280ED0FFE70E98FF
:101E8000002806D4FFE715A800784007002804D5ED
:101E9000FFE71498401E1490FFE715A8007880070C
:101EA000002804D5FFE70C98002833D0FFE715A8D9
:101EB0000078C00700282DD1FFE71498002828D00B
:101EC000FFE7FFE714990020002908900DD0FFE7F5
:101ED0000B99149A0120002306939142079001D395
:101EE0000698079007980890FFE70898C007002811
:101EF0000ED0FFE71498401E14900F98202100F098
:101F000061F90F98C068002801D5FFE700E0D9E724
:101F1000FFE7FFE70F98C06800286DD4FFE70E9831
:101F2000002808D5FFE70E9840420E900F982D210B
:101F300000F048F90CE015A800784007002805D506
:101F4000FFE70F982B2100F03DF900E0FFE7FFE7E6
:101F50000F98C06800284ED4FFE715A800788007C6
:101F6000002837D5FFE715A80078C007002831D131
:101F7000FFE70C9800282DD1FFE71498002828D0FF
:101F8000FFE7FFE714990020002905900DD0FFE737
:101F90000B99149A0120002303939142049001D3DA
:101FA0000398049004980590FFE70598C00700285F
:101FB0000ED0FFE71498401E14900F98302100F0C7
:101FC00001F90F98C068002801D5FFE700E0D9E7C4
:101FD000FFE7FFE70F98C06800280BD4FFE70F98D2
:101FE0000E990D9A0C9B149C159D0195009400F080
:101FF00005F8FFE7FFE7FFE710B0B0BD10B590B000
:10200000139C129C0F900E910D920C930E980990B8
:1020100001200A900890FFE709980D99884209D39A
:10202000FFE709980D99FEF737F909900898401CC9
:102030000890F1E70C980899884203D9FFE70C98BB
:102040000890FFE713A80078C007002840D1FFE7F9
:10205000129800283BD0FFE713A8007880070028DB
:1020600008D5FFE70C98002804D1FFE707A9302026
:10207000087003E007A920200870FFE7FFE7129926
:102080000020002906900DD0FFE70899129A012040
:10209000002304939142059001D30498059005987C
:1020A0000690FFE70698C00700280FD0FFE71298B8
:1020B000401E12900F9807A9097800F083F80F9836
:1020C000C068002801D5FFE700E0D8E7FFE7FFE799
:1020D0000F98C068002870D4FFE7FFE70C9802282B
:1020E00004D3FFE70C98401E0C900BE00E980A9961
:1020F000FEF7D2F80B900B980D99884201D2FFE7BA
:1021000005E0FFE70D980A9948430A90E6E7FFE7E4
:102110000E980A99FEF7C0F80B900B980A99414364
:102120000E98401A0E900F980B9A2549895C00F082
:1021300049F80F98C068002801D5FFE709E00D991C
:102140000A98FEF7A9F80A90FFE70A980028DFD15D
:10215000FFE713A80078C00700282DD0FFE71298EA
:10216000002828D0FFE7FFE71299002000290390FC
:102170000DD0FFE70899129A0120002301939142A4
:10218000029001D30198029002980390FFE7039810
:10219000C00700280ED0FFE71298401E12900F983B
:1021A000202100F00FF80F98C068002801D5FFE744
:1021B00000E0D9E7FFE7FFE7FFE710B010BDC0463A
:1021C0000528000880B584B0039002A80170039828
:1021D000806801900198401C0399496888420ED894
:1021E000FFE7029803990968019A88540198401CF6
:1021F000039988600399C868401CC860FFE7039989
:1022000088684968884215D1FFE7039A1069116808
:102210009268FFF7FBFA03998968884205D0FFE7C7
:1022200003990020C043C86003E003990020886040
:10223000FFE7FFE704B080BD80B58AB00990089140
:102240000792002005900998C0680390FFE709985D
:102250000069049004980399884206D9FFE704991D
:102260000398C0434018069008E0099881680398D5
:10227000049A801AC04340180690FFE7069809990F
:102280008968039A891A884203D2FFE70698019069
:1022900005E0099880680399401A0190FFE70198CA
:1022A000069006980799884203D2FFE706980090A7
:1022B00002E007980090FFE70098069009984068B0
:1022C00003994018029002980899069AFDF782FF38
:1022D00006990598401805900699089840180890A6
:1022E00006990798401A079006990398401803909A
:1022F000039809998968884203D1FFE70020039079
:10230000FFE703980999C860FFE7079800289ED166
:10231000FFE705980AB080BD80B588B007900691A8
:1023200005920798C0680390079880680399401A3F
:10233000029002980599884210D9FFE707984068F3
:1023400003994018019001980699059AFDF742FFFC
:102350000398059940180799C8601DE002980490F9
:102360000798406803994018019001980699049ACB
:10237000FDF730FF05980299401A049007984068CD
:10238000019001980699029A8918049AFDF722FF94
:1023900004980799C860FFE708B080BD70B582B0A7
:1023A000024601A80270009100214056002816D470
:1023B000FFE7002401A908570322D3431840174A16
:1023C000805809578C07E50EFF24AC40A043009CC1
:1023D000A401E4B2AC402043194088501AE001A99E
:1023E00008780F24204008380322D34318400A4AB3
:1023F0008058002549578D07EE0EFF25B540A843AC
:10240000009DAD01EDB2B540284321400839194087
:102410008850FFE702B070BD1CED00E000E400E072
:1024200080B584B0039000F0CBF80399088103983D
:102430000821425E554900200290FFF763FA01200F
:102440000190FEF71BF800F0CFF801460298039ABE
:10245000518203994A8A4E49FFF754FA0198FEF7D0
:102460000DF800F0D3F801460298039AD18203993F
:10247000CA8A4849FFF746FA0198FDF7FFFF00F0C6
:10248000D7F801460298039A918003998A884249B5
:10249000FFF738FA0198FDF7F1FF00F0DBF801468D
:1024A0000298039A9182039914228A5E3B49FFF7AE
:1024B00029FA0198FDF7E2FF00F0E0F801460298E2
:1024C000039A518003994A883549FFF71BFA01980E
:1024D000FDF7D4FF00F0E4F801460298039A11706A
:1024E00003990A782F49FFF70DFA0198FDF7C6FF07
:1024F00000F0E8F801460298039A117303990A7BE9
:102500002949FFF7FFF90198FDF7B8FF00F0ECF853
:1025100001460298039A518103990A228A5E23494F
:10252000FFF7F0F90198FDF7A9FF00F0F1F8014677
:102530000298039AD1810399CA891D49FFF7E2F9EC
:102540000198FDF79BFF00F0F5F801460298039A09
:10255000118203990A8A1749FFF7D4F90198FDF708
:102560008DFF00F0F9F801460298039AD180039993
:10257000CA881149FFF7C6F90198FDF77FFF029855
:102580000E49FFF7BFF904B080BDC046B12800086E
:10259000E6280008A6280008F7280008C628000832
:1025A00011290008642800088B2800087A280008F0
:1025B00027290008942800086D28000843280008EF
:1025C00080B584B003A80A21017002AA01920021FB
:1025D000009111800178AA200223FEF779FF00996B
:1025E0000198405E04B080BD80B584B003A82C2162
:1025F000017002AA0192002111800178AA20022311
:10260000FEF766FF0198008804B080BD80B584B0F5
:1026100003A80E21017002AA019200211180017805
:10262000AA200223FEF754FF0198008804B080BD61
:1026300080B584B003A80621017002AA019200218E
:1026400011800178AA200223FEF742FF019800883A
:1026500004B080BD80B584B003A83221017002AA05
:1026600001920021009111800178AA200223FEF737
:102670002FFF00990198405E04B080BD80B584B002
:1026800003A80421017002AA01920021118001789F
:10269000AA200223FEF71CFF0198008804B080BD29
:1026A00080B584B003AA01920020107002A8022114
:1026B00001700178AA200123FEF70AFF0198007833
:1026C00004B080BD80B584B003A82E21017002AA99
:1026D0000192002111700178AA200123FEF7F8FE73
:1026E0000198007804B080BD80B584B003A80C21A7
:1026F000017002AA01920021009111800178AA20A4
:102700000223FEF7E5FE00990198405E04B080BD0B
:1027100080B584B003A81821017002AA019200219B
:1027200011800178AA200223FEF7D2FE01980088CA
:1027300004B080BD80B584B003A81A21017002AA3C
:102740000192002111800178AA200223FEF7C0FE29
:102750000198008804B080BD80B584B003A808212A
:10276000017002AA0192002111800178AA2002239F
:10277000FEF7AEFE0198008804B080BD80B582B03F
:10278000002000900190FEF72BF8FFF79DFAFEF76E
:1027900055FF00980549FFF7B5F8FFE70448FFF734
:1027A0003FFE7D208000FDF769FEF7E71528000851
:1027B00028050020000000000000000000000000CC
:1027C0000000000000000000000000000000000009
:1027D00000000000010000000200000003000000F3
:1027E00004000000060000000700000008000000D0
:1027F000090000000000000000005454522052451F
:102800004747455300303132333435363738394154
:1028100042434445461B5B323B33326D48656C6C2A
:102820006F20576F726C642066726F6D205345473E
:102830004745522C205465726D696E616C203121C0
:102840000D0A003D3D3D3D3D3D3D3D3D3D3D3D3D58
:102850003D3D3D3D3D3D3D3D3D3D3D3D3D3D3D3DA8
:102860003D0D0A00736F633A25640D0A00766F6CA4
:10287000746167653A25640D0A0074656D70657250
:1028800061747572653A25640D0A00736F683A25A4
:10289000640D0A0074696D655F746F5F66756C6CBA
:1028A0003A25640D0A00666C6167733A25640D0A67
:1028B00000617665726167655F63757272656E74DB
:1028C0003A25640D0A007265636F6D6D656E64650F
:1028D000645F6368617267655F63757272656E7469
:1028E0003A25640D0A006379636C655F636F756EEA
:1028F000743A25640D0A0066756C6C5F63686172DA
:1029000067655F63617061636974793A25640D0A74
:102910000072656D61696E675F63617061636974A0
:10292000793A25640D0A0074696D655F746F5F659F
:102930006D7074793A25640D0A005465726D696E84
:10294000616C0000682900080000002010000000F1
:10295000040100087829000810000020380B00004E
:1029600020010008000000000024F4000100000025
:0829700004000000000000005B
:04000005080000C12E
:00000001FF
