:020000040800F2
:10000000580B00209902000835310008BD2C00086B
:1000100000000000000000000000000000000000E0
:10002000000000000000000000000000A3370008EE
:10003000000000000000000039310008F53700081A
:10004000AB02000800000000AB020008AB02000891
:10005000AB020008AB020008AB020008AB020008CC
:1000600000000000AB020008AB020008AB02000871
:10007000AB020008AB020008AB0200080000000061
:10008000AB0200080000000000000000AB02000806
:1000900000000000AB020008AB020008AB02000841
:1000A000AB020008AB020008AB020008AB0200087C
:1000B000AB0200080000000000000000000000008B
:1000C00000F002F800F0BDF80CA030C80838241881
:1000D0002D18671EA246AB4654465D46AC4201D180
:1000E00000F0AFF87E460F3EB6460FCC01263342F5
:1000F00000D0FB1A3343A246AB46184744460000E3
:1001000064460000103A02D378C878C1FAD8520782
:1001100001D330C830C101D504680C6070470000BD
:100120000023002400250026103A01D378C1FBD813
:10013000520700D330C100D50B60704710B56E294F
:1001400002D100F0BBFB10BD702902D100F0F5FC1C
:1001500010BD662902D104F075F910BD652902D1E0
:1001600004F070F910BD672902D104F06BF910BDDD
:10017000612902D104F06EF910BD03681B0A01D396
:1001800080231943692902D100F062FB10BD642964
:1001900002D100F05DFB10BD752902D100F058FBC3
:1001A00010BD6F2902D100F073FC10BD782902D177
:1001B00000F0B0FC10BDE92902D100F00FFC10BD29
:1001C000E42902D100F00AFC10BDF52902D100F0AB
:1001D00005FC10BDEF2902D100F066FC10BDF82926
:1001E00002D100F0A5FC10BD0368DB0901D3802318
:1001F0001943632902D101F088F910BD732902D196
:1002000001F08BF910BDE32902D101F095F910BD81
:10021000F32902D101F098F910BD002010BD1FB5DF
:1002200001F0F2F904000020002104F0F5F8401C70
:1002300060600020002104F0D9F8E0601FBD10B517
:1002400010BD01F0BAF91146FFF7E9FF04F06CF8B0
:1002500001F04EFD03B4FFF7F2FF03BC01F098FD7F
:1002600070B505460C46164602E00FCC0FC5103E91
:10027000102EFAD2082E02D303CC03C5083E042E5A
:1002800007D301CC01C5361F03E021782970641C17
:100290006D1C761EF9D270BD07488047074800479D
:1002A000FEE7FEE7FEE7FEE7FEE7FEE70448054956
:1002B000054A064B704700007B380008C100000863
:1002C00058050020580B0020580700205807002030
:1002D0000FB41CB5084B06AA7B44694600900598EC
:1002E00000F005FB04460020694600F013FB2046A1
:1002F0001CBC08BC04B018473906000030B5441CCB
:1003000003E00178401C00290DD08107F9D10B4B87
:10031000DD0104C8D11A91432940FAD0001B0A0616
:1003200003D0C01E30BD001B30BD0A0401D0801EAA
:1003300030BD0902FCD0401E30BD000001010101AA
:10034000F8B5042A2CD3830712D00B78491C03700C
:10035000401C521E83070BD00B78491C0370401CB5
:10036000521E830704D00B78491C0370401C521E98
:100370008B079B0F05D0C91ADF002023DE1B08C99D
:100380000AE0FFF76DFFF8BD1D4608C9FD401C4699
:10039000B4402C4310C0121F042AF5D2F308C91A26
:1003A000521EF0D40B78491C0370401C521EEAD434
:1003B0000B78491C0370401C012AE4D409780170B1
:1003C000F8BD01E004C0091F0429FBD28B0701D549
:1003D0000280801CC90700D00270704700290BD032
:1003E000C30702D00270401C491E022904D38307B0
:1003F00002D50280801C891EE3E70022EEE700227E
:10040000DFE70000002203098B422CD3030A8B4252
:1004100011D300239C464EE003460B433CD40022FC
:1004200043088B4231D303098B421CD3030A8B420E
:1004300001D394463FE0C3098B4201D3CB01C01ADC
:10044000524183098B4201D38B01C01A52414309A7
:100450008B4201D34B01C01A524103098B4201D395
:100460000B01C01A5241C3088B4201D3CB00C01A02
:10047000524183088B4201D38B00C01A524143087A
:100480008B4201D34B00C01A5241411A00D201469F
:100490005241104670475DE0CA0F00D04942031038
:1004A00000D3404253409C46002203098B422DD387
:1004B000030A8B4212D38901FC2212BA030A8B422F
:1004C0000CD3890192118B4208D3890192118B427E
:1004D00004D389013AD0921100E08909C3098B4203
:1004E00001D3CB01C01A524183098B4201D38B0146
:1004F000C01A524143098B4201D34B01C01A5241E9
:1005000003098B4201D30B01C01A5241C3088B422D
:1005100001D3CB00C01A524183088B4201D38B0018
:10052000C01A5241D9D243088B4201D34B00C01AA2
:100530005241411A00D201465241104663465B10B7
:1005400001D34042002B00D54942704763465B10FF
:1005500000D3404201B50549002802DC491C08408F
:1005600000E00846C046C04602BD00BFFFFFFF7F57
:1005700070477047704700000121C90501234118E9
:1005800042001B06D3185B0E0AD0C1100722D20608
:10059000891840075242D14201D55200891870474C
:1005A000090208D50146002A03D0C10FC90700205F
:1005B000704710467047420202D00020024970473F
:1005C000072109050143F4E70000F87FF0B5FF2596
:1005D0002D04C609C209FF2704462E400137CB0966
:1005E0003E4348402A402B400746002A6BD0002B50
:1005F00069D0AA4267D0AB4265D0002800DA324603
:100600000125ED0529432C4309022002090AD21ACB
:100610004B0C7F24E31A434C000A7C44E35C7D24AA
:100620002404121914145B00A218884201D3521C2E
:1006300000E0400049420C465C4324115C43DB016E
:100640006415E318040A5C43C502200D0C464443BC
:100650006419250A5D432303EC0C0D466543000332
:100660000019EB184C42A34201D35B18401CD4057F
:100670002018002B07D05B00C91804D3401C0029A8
:1006800001D1400840003F2189048A4209D3002A51
:1006900008DC1106090F04D0032149074018C00FD8
:1006A000C007F0BD01224100120689187F225206C0
:1006B0009142F6D205214907C84201D59010F0BDFC
:1006C000FF20C005F0BD002F00DA32461648AA42CE
:1006D00007D2AB4205D21902090E17D0F80FC00796
:1006E000F0BDFF2563002D06AB42F9D84900A942B1
:1006F000F6D8AB4201D1A942F2D0A94201D10021E2
:1007000001E061004908D0050843F0BD1102090E5F
:10071000FBD0FF200243D005F0BD0A46014610463B
:1007200054E70000463E00000000C07F1F22030C7B
:1007300002D10F2200041CD0030E01D10002083A9E
:10074000030F01D10001121F830F01D18000921EFF
:10075000002801DB4000521ED20551180212511828
:100760001922904004D3491C002801D149084900AE
:1007700008467047C10FC90700D0404201229207C6
:100780001143D3E701218907D0E770B50446856995
:100790000068C10601D5302600E02026C00707D03A
:1007A00070BD62683046A1689047206A401C206294
:1007B0006D1EF6D570BD70B5044685690078C0071A
:1007C00007D170BD6268A16820209047206A401C54
:1007D00020626D1EF6D570BD09684A0501D540B28C
:1007E0007047C905FCD500B2704709684A0501D5B4
:1007F000C0B27047C905FCD580B2704770B50C46D1
:100800000546012A05D02878800600D5EA6900232C
:1008100002E0012305E05B1C934202D2E05C002869
:10082000F9D1A869E618C01AA861286AC018286218
:100830002846FFF7AAFF04E06A682078A968641CCC
:100840009047B442F8D32846FFF7B5FF70BD0000CB
:10085000F7B5002575291068009914A611D0FFF787
:10086000BBFF002802DA404211A608E0009909689F
:100870008A0701D50FA602E0490704D50EA6012577
:1008800001E0FFF7B2FF009F0024243704E000F0EE
:1008900080FE30313955641C0028F8D12B46324691
:1008A0002146009800F057FAFEBD0000000000004D
:1008B0002D0000002B0000002000000011680268DD
:1008C000006A530501D5087009E0D30501D50880F9
:1008D00005E0130602D5C21705C100E0086001203B
:1008E0007047000001694A1C02610878704700B532
:1008F0008FB002910021059105490193794403913C
:1009000011460490684600F025F90FB000BD0000C4
:10091000E5FFFFFF0A681070521C0A607047000074
:10092000F7B50446154686B02B487844002703C81F
:100930003E460090019111E007986A467100415AC5
:1009400002A800F005FE411C07D02178890603D5D6
:10095000E269391891420ED83F18761C207880063B
:1009600002D5E069B84206DDAE42E5DB07987100CA
:10097000405A0028E0D1A069C01BA0612046FFF7C3
:1009800004FF154878445A3803C8009000200191AC
:1009900016E041006A460798415A02A800F0D8FDC7
:1009A0000590401C0AD0002505E0626802A8A168F5
:1009B000405D90476D1C05988542F6D30498401C15
:1009C000B0420490E5DB206AC01920622046FFF7A0
:1009D000F2FE09B0F0BD0000763B0000F7B5D21D75
:1009E0000025D20815A6D200F52905CA11D0002A83
:1009F00005DA00214042914111A60A4608E000991B
:100A000009688B0701D50FA602E0490701D50EA69C
:100A100001251146009F0024243704E000F05EF910
:100A200030323A55641C02460A43F7D12B4632460F
:100A30002146009800F08FF9FEBD00000000000084
:100A40002D0000002B0000002000000070B50446BF
:100A50000021243408E05507D2086D0F3035655465
:100A60005D072A43DB08491C15461D43F3D1046882
:100A7000002310A2250708D520252C400C4304D0C4
:100A8000C46901230CA2641EC46100F064F970BD46
:100A900010B5044621461068FFF7A7FE0023024662
:100AA0002046FFF7D3FF10BDD21DD108C9000CC9E5
:100AB000CCE700000000000030000000F8B50F4651
:100AC0000188090502D5224C7C4402E0204C7C447C
:100AD0000E3405460021243508E016071209360FAA
:100AE000A65D6E541E0732431B09491C16461E4361
:100AF000F3D1224604780023240705D5702F06D0B1
:100B0000002901D00223113200F025F9F8BD01239C
:100B10001032F9E770B504460D4621461068FFF71C
:100B200064FE0023024629462046FFF7C7FF70BD3A
:100B3000D21DD308DB000CCBC0E730B403682024FF
:100B40001268234303600823C36130BC0023B5E768
:100B5000E0390000F3B50446002081B02062204651
:100B6000E1688847002872D0252802D06268A16811
:100B7000ABE0594F00267F442046E1688847202893
:100B8000054608DB312D06D2781920380078002878
:100B900001D00643F0E7B00701D5042086430020CA
:100BA000E0610746A0612A2D0AD0284603F016FC12
:100BB000002827D0B8000019303D0090856119E069
:100BC0000298BA00121902C8916102902046E168A9
:100BD0008847012F054617D1E06900281FDA202039
:100BE00086431CE000980A21806948430099401917
:100BF000303888612046E1688847054603F0EEFBFF
:100C00000028EFD1012F0AD02E2D08D12046E1680F
:100C100088470546202006437F1C022FC3DBA069BE
:100C2000002803DA4042A06101200643F00701D00A
:100C3000102086436C2D0BD0682D09D04C2D3CD054
:100C40006A2D38D0742D38D07A2D36D016E040E099
:100C5000E1682F4620468847B842054609D16C2FE7
:100C600029D001208002E1680643204688470546D6
:100C700004E06C2F1DD0FF2001300643002D28D04A
:100C800028464138192803D80120C00206432035E0
:100C9000204626602946029A1646FFF74FFA00289A
:100CA00010D001280BD0F61DF008C00008300290CB
:100CB00055E74020E1E78020D5E70020D3E7361D47
:100CC00002964CE762682846A1689047206A401C5B
:100CD00044E7206AFEBD00005A3900000B4670B59B
:100CE000024689078008084319469D08141AA9413D
:100CF00025090807054308092C194841250A01065A
:100D00000D43010A2C194141200C0D0428430D0C00
:100D100000194D41002140194D41C00869070843A1
:100D2000E908840F8D002543840024184D412419BF
:100D30006D41121BAB4107E00925ED432C115219FF
:100D400063410024401C61411C460A250026551BB6
:100D5000B441F1D270BDFFB504460D4681B02430D8
:100D600000902168880604D51022E0699143216033
:100D700000E00120A84201DD471B00E000270498A5
:100D8000A1697A191018081AA0612078C00602D447
:100D90002046FFF7FAFC002608E003986268A16885
:100DA000805D9047206A401C761C20620498864231
:100DB000F3DB2078C0060AD52046FFF7E6FC06E004
:100DC0006268A16830209047206A401C2062384643
:100DD0007F1E0028F4DC07E000986268A168405D8F
:100DE0009047206A401C206228466D1E0028F3DCD4
:100DF0002046FFF7E0FC2078000602D5022005B06F
:100E0000F0BD0120FBE70000FFB50C461E468FB089
:100E100003CA089009914F007D0D00D16D1E00217D
:100E200008460020C0460321099A89050840002A87
:100E300003DA8200801840080840800D01280A90DB
:100E400002DD0020C0430A90089807430DD0F04807
:100E5000F049281848430714189800281DD07542F7
:100E6000291E1DDD0A9842421BE01898012802D075
:100E70000020302104E00020F24305E02154401C12
:100E8000B042FBDB30460022189B002121540F9911
:100E90008B600A60486013B0F0BDBD1B6D1CDFE7BE
:100EA0000A9A002900DA69420BA800F0F5FB0BABA7
:100EB00007CB03AB07C30899099800F059FC6B46B0
:100EC00007C30146D4480918002D00910BDDD24913
:100ED00003980A9A49424018002303A903906846E0
:100EE00000F0B6FE08E003990A9A0023081803A947
:100EF0000390684600F056FE6B4607C30004000CE2
:100F000003D00020C043410800E01046189A002A90
:100F100003D00022009215461EE0751E05D4FFF78F
:100F2000DDFE303262556D1EF9D501220843079669
:100F300002D000227F1C04E02078302801D100225A
:100F40007F1E002A069787D01EE0112D07DAFFF7D3
:100F5000C5FE303262556D1C02460A43F5D1084386
:100F600003D00098002819D00EE00021681E05E08B
:100F7000235C625C63542254401E491C8142F7DBAF
:100F8000A81B401E07950690079A18990020A054A8
:100F90000F98079B069A81600CC07CE71126002001
:100FA000189059E7D21DF0B50D460446D10893B00C
:100FB000C90003C90C900D9103F0FAF902460D988F
:100FC000C00F01D02D2007E02068810701D52B201C
:100FD00002E04007C00F4001032A0F9001D0072A0A
:100FE00005DB03462946204600F012FB0EE120787F
:100FF000800601D5E76900E006272846652D04D064
:10100000662814D0672D69D12DE00020112F0090A3
:1010100001DB112300E07B1C0CAA03A910A8FFF739
:10102000F3FE1199002610987D1C0E9142E00120DC
:101030003B460CAAC0070B900120009003A910A802
:10104000FFF7E2FE119D12981099002600280E95D8
:1010500001D1781C0D18781B02D446427D1C761EE7
:10106000E81B00903AE0012F00DA01270020112F41
:10107000009001DD112300E03B460CAA03A910A853
:10108000FFF7C2FE11993D46109800260E91217877
:1010900009070BD40E99A94200DA0D4603A9012DC8
:1010A00004DD4A19203AD27F302A06D0B84201DA4C
:1010B000011D04DA012100910FE06D1EEFE7002809
:1010C00002DC86192D1A03E0411CA94200DD0D4601
:1010D000801B401C00900120C0070B902078000767
:1010E00005D40098A84202DB0020C0430090694666
:1010F0000020C8720B98012102AF0337C90788424C
:1011000025D0022010902B2011900B9800280BDA8C
:1011100040420B902D20119006E00B9800F039FA18
:1011200030317F1E0B9039701099481E00291090A5
:10113000F3DC0B980028F0D111987F1E38702088BE
:10114000000501D5452000E065207F1E387001A80C
:10115000C01BC01D0B900F98002800D00120411922
:101160000098C01709180B980818A169081A401EA2
:10117000A0612078C00602D42046FFF706FB0F9836
:10118000002805D06268A1689047206A401C206250
:101190002078C00625D52046FFF7F7FA21E0002E7B
:1011A00007DB0E98B04204DD03A86268805DA16889
:1011B00002E06268A16830209047206A761C401CDB
:1011C00020620098401E002800900AD100F01CFA0E
:1011D000C06862680168405CA1689047206A401C52
:1011E000206228466D1E0028D9DC07E06268387846
:1011F000A1687F1C9047206A401C20620B99481E02
:1012000000290B90F2DC2046FFF7D5FA032042E6D6
:1012100001FCFFFF104D0000E1DFFFFFD21DF0B524
:1012200004460D46D0088DB0C000466807683146B8
:10123000384603F0BDF80246F00F01D02D2307E039
:101240002068810701D52B2302E04007C00F43012E
:101250006846002B037001D0012000E00020032A23
:101260000A9001D0072A04DB2946204600F0D0F975
:101270002DE12078800601D40D2500E0E56970009D
:10128000400D0D2D01904BDA300D00210B900846DA
:101290000020C046032189050840002E05DA82009F
:1012A0008018C20F1018401008408015012801DD79
:1012B0000020C043A9000023182906D39C460A46F3
:1012C0000123183A1B07D34003E001221205CA404C
:1012D00094460C31202902D33A46203900E03246A8
:1012E0008A40002802DD002A06D119E0002817D123
:1012F0000121C9078A4213D3194663467F185E410C
:10130000002806D10120C007824202D10846874347
:101310009E430B98310D814202D00198401C0190F0
:101320002088000502D57149794402E06F4979446B
:1013300019396B460A9830221A540A980A7C401CC4
:101340001A54401C0A900198002801DC302000E06B
:1013500031201872019A0120002A02D0644BD21861
:1013600004E072003A4302D0614A521C0192002DFF
:1013700002DC2278120703D56A462E205072022022
:101380000022864694460CE032033601120F6D1E91
:101390008B5C02AA13546246521C401C9446052AD8
:1013A00001DA002DF0DC002202AE08E03B0F3F0125
:1013B000CB5C521C6D1E3354401C082A01DA002DF0
:1013C000F4DC23689A0601D511E0401E704504DD67
:1013D0003218203AD27F302AF7D0002807DD3218A1
:1013E000203AD27F2E2A02D11A0700D4401E002DA7
:1013F00003DD3E223254401C6D1E497C315401995C
:10140000401C002906DA2D21471C31540198404226
:10141000019003E02B21471C315401987D21C90024
:10142000884206DBFEF7F8FF3030F0557F1C019153
:1014300001E0642808DB01986421FEF7EDFF3030FD
:10144000F0557F1C019101E00A2806DB01980A2172
:10145000FEF7E2FF3030F0557F1C01980A21FEF7BD
:10146000DBFF3031F1550A98A1697F1C7A191018F9
:10147000081AA0612078C00602D42046FFF785F93B
:10148000216A6E460A980818206204E06268307883
:10149000A168761C90470A98401E0A90401CF5D11E
:1014A0002078C00602D52046FFF76FF902AE09E0AA
:1014B0003078761C3E280DD06268A1689047206A7B
:1014C000401C20627F1EF3D22046FFF774F90DB056
:1014D0000320F0BD206A4019206203E06268A16821
:1014E000302090476D1EEDD3F8E70000CC310000AE
:1014F00001FCFFFF10B54369002B02D0C046C04677
:1015000001E0FFF77BF9012010BD1278014624317C
:101510000A7000224A700122ECE711680022D243CF
:10152000E8E710B54369002B02D0C046C04601E091
:10153000FFF7F6F9012010BD12880146243182849C
:101540000022C2840122ECE711680022D243E8E7BE
:10155000F8B516460C46054600F04EF80368FF2025
:101560000230C05C012807D0FF2C0FD8185D00287E
:101570000CD001202C70F8BDFF33324621460833D1
:101580001868C71828460023B847F8BD0020C04394
:10159000F8BD01468008081A02091018020A10183E
:1015A000020C1018C008820012185200891A01E0BB
:1015B000401C0A390A29FBD27047754600F0A0FB8F
:1015C000AE46050069465346C008C000854618B0BF
:1015D00020B5FEF76BFE60BCB64600260027C0C5EE
:1015E000C0C5C0C5C0C5C0C5C0C5C0C5C0C5403DDB
:1015F000490849008D46704710B500F005F8001DF8
:1016000010BD00BF152E00000048704740000020AC
:10161000F8B51F46044601230068DB020326014695
:101620001840072A05DB002801D017A506E017A5FA
:1016300004E0002801D016A500E016A51020814383
:101640002160A069C01E002FA06101D0401EA061D2
:101650002046FFF79AF8002F09D038466268A16843
:101660009047206A401C2062C01C206206E0206A6D
:10167000FAE762682878A1686D1C9047761EF8D258
:101680002046FFF798F8F8BD4E414E006E616E009F
:10169000494E4600696E6600F7B516468AB0334873
:1016A00078446C4603467C33C06F5A689B680DC40F
:1016B0002E487844763003AC0DC80DC43720C001E5
:1016C000081837211B30FEF7A7FE05460C46803D63
:1016D0001B3C02D56442012000E000200027099055
:1016E00010E0E0070CD00C202049784379443246C2
:1016F0004C3941186846012300F054FA6B4607C381
:1017000064107F1C002CECD1184F7F442E3F16E054
:10171000E80712D02001C0190EC80691089307925D
:101720000068F04201D1981908903246012306A9B9
:1017300003A800F037FA03AB07C36D10641C002D3B
:10174000E6D10998002806D032466946012303A84D
:1017500000F07EFA05E001233246694603A800F056
:1017600021FA0A9B07C30DB0F0BD0000682E0000EF
:10177000034640000A4610B5400D0BD00121C907B1
:101780000F24A40200191C0364082143540D2143B3
:10179000D20207E000210120F2E7D40F49002143E3
:1017A0005200401E0029F8DADB0FDB07184310BD9A
:1017B000FFB50D46144685B04868516802F0E0FD5B
:1017C00000910190A868A16802F0DAFD02910390EF
:1017D000A868616802F0D4FD029A1218824202924F
:1017E00001D2012000E00020019A0B18D218002835
:1017F000019202D08A4202D903E08A4201D201203A
:1018000000E000200099081800906868A16802F0C4
:10181000B7FD029A12188242029201D2012000E022
:101820000020019A0B18D2180028019202D08A4297
:1018300002D903E08A4201D2012000E00020009991
:1018400008180090286821684000490040084908AD
:101850004018FA49471814E001994000C90F08439D
:101860000090019802994000C90F08430190029826
:1018700003994000C90F08430290039840007F1E5F
:10188000039000980028E7DA0898002801D0EC4E71
:1018900000E00026B74201DA012000E00020002825
:1018A00004902AD0F71BF806C00E15D0029B202109
:1018B000091A039A8B401A430392029A019BC24071
:1018C0008B401A430292019A009BC2408B400099C0
:1018D0001A430192C14000917B110DD06F46032045
:1018E000C11A03D500218200B95003E08A008100AB
:1018F000BA587A50401EF3D537460398029900280B
:1019000000D00120014308980291002808460CD01D
:10191000002800D001200199019A490508430121BE
:10192000D20AC902D202019200E001210E9B0122DB
:10193000D207012B02D0002B03D013E0002807D1DF
:1019400020E0904204D890420CD1019B0B4209D078
:10195000019B5918019105D10099491C009101D1B1
:101960007F1C009200280DD0102108460020C046A0
:101970000498002806D00F98002803D008210846B4
:101980000020C04628682168019B009A4840C10F8A
:101990000598C90739430EC009B0F0BDFFB587B03F
:1019A000099A089808995368926840688968964629
:1019B0000022039317469446089A12685300099A26
:1019C0005B081268520052089A1A9E4BD4180A9A61
:1019D000002A01D0352200E0402206920022012395
:1019E00015460492DB07059324E0002D05D17546CA
:1019F0000346039E4D1BB34109D375466646039BC0
:101A0000491B049D9841059B7519AC465F4163468F
:101A10003B4308D0059B049EDD0776082E435B08F8
:101A20000496059301E0521E641EC50FED07491888
:101A30004041521C069B9A42D7DB002D04D17546CB
:101A4000039A6B1A824101D203200CE0039A0B46E1
:101A50006B404240134303D0014303D0012002E016
:101A6000022000E0002061460191002100970291D0
:101A70000A99002905D0614640020143704B01914B
:101A800002E08007002302909C4201DA012000E07E
:101A9000002007003AD01A1BD006C00E15D0029DB8
:101AA0002021019C091AC5408C402543029C8C4092
:101AB00000D001242543019C0295009DC4408D4027
:101AC00000992C430194C140009154111DD06D46E2
:101AD0000221002202290CD10320001B07E000286C
:101AE00004DB8600AE59002E00D00122401C0328E2
:101AF000F5DB081B02D588002A5004E08000285836
:101B000010438A00A850491EE3D51C460A980028B5
:101B100002980CD0002800D001200199019A4905B3
:101B200008430121D20AC902D202019200E0012138
:101B3000109B0122D207012B02D0002B03D013E00F
:101B4000002807D11FE0904204D890420CD1019B9D
:101B50000B4209D0019B5918019105D10099491CEC
:101B6000009101D1641C009200280CD0102108467D
:101B70000020C046002F06D01198002803D008216D
:101B800008460020C04608980999019A009B006801
:101B900009684840C10F0798C907214382600AC0FD
:101BA0000BB0F0BD00B585B0019300920A46014626
:101BB000002302A8FFF7FCFD02A807C805B000BD7E
:101BC000FFB50A461F4685B007990193012300918E
:101BD000014602A8FFF7ECFD02990398049ECA0F84
:101BE0004900D20700920F22490892028C1A002164
:101BF000002800DB0C46450013486D08844214D3CE
:101C0000079A002A04DA441E0026104DF64302E02B
:101C100004460D460E46102108460020C046002FFF
:101C200003D0042108460020C0462005E90A0843E5
:101C3000009908436905F20A1143ADE602C0FFFFAF
:101C4000013C0000FF3F0000FF070000FFFFFF7F97
:101C500000B585B0019300920A460146002302A810
:101C6000FFF79CFE02A807C8A8E7FFB50A461F4673
:101C700085B00799019301230091014602A8FFF75F
:101C80008DFE02990398049ECA0F4900D207009264
:101C90000F22490892028C1A0021002800DB0C4612
:101CA000450011486D08844214D3079A002A04DACB
:101CB000441E00260D4DF64302E004460D460E4636
:101CC000102108460020C046002F03D004210846FA
:101CD0000020C0462005E90A084300990843690529
:101CE000F20A114358E60000FF070000FFFFFF7FE4
:101CF00010B50446C046C0462046FEF7ABFA10BDFC
:101D00000048704720000020024670B50A43920741
:101D10002AD11E4DEE0104C808C9541B9443344017
:101D200017D0D0B2D9B2401A2106014310D190B2D7
:101D300099B2401A210401430AD110021902000A83
:101D4000090A401A2102014302D1100E190E401A4D
:101D500070BD9A42DFD010BA19BA884201D9012069
:101D600070BD0020C04370BD02780B78401C491C38
:101D7000002A09D09A4207D102780B78401C491CEE
:101D8000002A01D09A42EFD0D01A70BD01010101A2
:101D900001491820ABBEFEE726000200704781B063
:101DA000EFF3108072B60090FFE7FEE780B584B0D5
:101DB000039000F09DF90290039801900198401C57
:101DC000002806D0FFE7D04801780198401801901C
:101DD000FFE7FFE700F08CF90299401A0199884269
:101DE00001D2FFE7F6E704B080BDC0468AB0099093
:101DF000089100200790FFE7089800680799C840FD
:101E0000002800D147E108980068079A0121914015
:101E1000084006900698002800D138E108984068EC
:101E200003210840012807D0FFE7089840680321F4
:101E3000084002282CD1FFE7099880680590079890
:101E40004000032181400598884305900898C168A7
:101E50000798400081400598084305900598099926
:101E6000886009984068059007980121814005988D
:101E70008843059008984068102108400109079898
:101E80008140059808430590059809994860FFE747
:101E90000898406803210840032816D0FFE70998F6
:101EA000C068059007984000032181400598884349
:101EB000059008988168079840008140059808437C
:101EC000059005980999C860FFE7089840680321C4
:101ED0000840022820D1FFE709980799C90889001E
:101EE0004018006A059007984007C00E0F218140F6
:101EF0000598884305900898016907984007C00E27
:101F0000814005980843059005980999079AD208D9
:101F1000920089180862FFE7099800680590079801
:101F20004100032002468A40059991430591089992
:101F30004968014007984000814005980843059092
:101F4000059809990860089880798007002800D1D1
:101F50009CE0079803218843504940580590079812
:101F60008007C00E0F21814005988843059009988D
:101F700005210907884203D1FFE70020049022E0F1
:101F800009984749884203D1FFE70120039017E0F1
:101F900009984449884203D1FFE7022002900CE0EF
:101FA0000999414A0320052300939142019001D0F1
:101FB0000098019001980290FFE702980390FFE7D4
:101FC00003980490FFE7049907988007C00E8140AA
:101FD00005980843059005980799032291432F4AD5
:101FE0008850324800680590069905988843059006
:101FF00008988079C006002805D5FFE7069905985E
:1020000008430590FFE705982849086028480068BC
:102010000590069905988843059008988079800670
:10202000002805D5FFE70699059808430590FFE7C6
:1020300005981F4908601F48006805900699059893
:1020400088430590089880798007002805D5FFE728
:102050000699059808430590FFE70598154908601B
:1020600015480068059006990598884305900898DA
:102070008079C007002805D0FFE706990598084336
:102080000590FFE705980C490860FFE7FFE7079810
:10209000401C0790B0E60AB07047C0466018024086
:1020A0000004005000080050000C005000180240CE
:1020B00004180240841802408018024084B0009145
:1020C00001460098039102A90880039800690988D5
:1020D000084204D0FFE701A90120087003E001A92C
:1020E00000200870FFE701A8007804B070470000E6
:1020F000064800687047C0463148027803490868BE
:10210000801808607047C046140000205405002065
:1021100080B582B001A900200870EE49086801224C
:10212000120210430860032000F00EF8002804D0CB
:10213000FFE701A90120087002E000F043F8FFE783
:1021400001A8007802B080BD80B584B0039002A9D8
:10215000002008701A480078002829D0FFE7E148DD
:1021600000680190164801787D20C000FEF74AF90A
:1021700001460198FEF746F900F098FD002812D1BB
:10218000FFE70398032809D8FFE703990022D0430B
:1021900000F036F80398D449086003E002A9012052
:1021A0000870FFE703E002A901200870FFE703E0E1
:1021B00002A901200870FFE702A8007804B080BDE2
:1021C0001400002082B0FFE70B48026801210A4397
:1021D00002600068084001900198FFE7FFE70748A8
:1021E0000268012109070A43026000680840009064
:1021F0000098FFE702B07047401002403C100240D8
:1022000080B584B0034603A80370029101920021B7
:102210004056029901F05CFE04B080BD80B584B0E8
:1022200002901A490868032252029043029A10430E
:10223000086002980121490288421ED1FFE7A9489F
:102240000168062048431249FEF7DCF8401C019063
:10225000FFE710480068400500280DD5FFE701980A
:10226000002804D0FFE70198401E019003E003A975
:102270000320087005E0ECE7FFE703A900200870E1
:10228000FFE703A8007804B080BDC046007000409E
:1022900040420F001470004080B584B0029001915C
:1022A0000298002804D1FFE703A9012008700CE17F
:1022B00001988849096807221140884221D9FFE71F
:1022C0008449086807229043019A10430860FFF789
:1022D0000FFF0090FFE77F48006807210840019941
:1022E00088420DD0FFE7FFF703FF0099401A7F49AE
:1022F000884204D3FFE703A903200870E5E0EAE77A
:10230000FFE7029800788007002817D5FFE70298BA
:1023100000784007002807D5FFE7B849086807227A
:10232000120310430860FFE7B44908680F22120245
:102330009043029A926810430860FFE70298007881
:10234000C007002872D0FFE70298406801280BD12F
:10235000FFE7AE4800688003002804D4FFE703A924
:1023600001200870B1E03DE00298406802280BD1DE
:10237000FFE7A64800688001002804D4FFE703A90E
:1023800001200870A1E02CE00298406800280BD1E1
:10239000FFE79E4800684005002804D4FFE703A932
:1023A0000120087091E01BE00298406803280BD1DF
:1023B000FFE74A4800688007002804D4FFE703A924
:1023C0000120087081E00AE0434800688007002887
:1023D00004D4FFE703A90120087076E0FFE7FFE7D8
:1023E000FFE7FFE78549086807229043029A526891
:1023F00010430860FFF77CFE0090FFE77F4800680D
:102400003821084002994968C90088420DD0FFE789
:10241000FFF76EFE0099401A3449884204D3FFE763
:1024200003A90320087050E0E8E7FFE70198294975
:10243000096807221140884221D2FFE72549086830
:1024400007229043019A10430860FFF751FE009065
:10245000FFE72048006807210840019988420DD015
:10246000FFE7FFF745FE0099401A2049884204D350
:10247000FFE703A90320087027E0EAE7FFE70298D7
:102480000078400700280AD5FFE75C490868072262
:1024900012039043029AD26810430860FFE700F0ED
:1024A00027F8564909680F22120211408A090C497F
:1024B00089581F221140C8400A4908600A4800682C
:1024C000FFF742FE03A90870FFE703A8007804B0F5
:1024D00080BDC046002002405C10024060100240F7
:1024E000A04500080000002018000020891300000B
:1024F00080B588B0414800688006400F00280FD1A1
:10250000FFE7424800680721C9020840C10A0120CC
:102510008840039003993C48FDF774FF029069E0FE
:102520003648006838210840082803D1FFE73548BD
:1025300002905EE0314800683821084010283CD104
:10254000FFE72F48016803221140069100687021BF
:1025500008400009401C049006980190022812D0FF
:10256000FFE7019803280FD1FFE704992548FDF7FD
:1025700049FF0146224800687F2212021040000AEB
:10258000484307900EE0FFE704991F48FDF73AFF24
:1025900001461B4800687F2212021040000A48438F
:1025A0000790FFE716480068400F401C0590079809
:1025B0000599FDF727FF02901AE0104800683821BE
:1025C0000840202804D1FFE70120C00302900EE05C
:1025D0000A48006838210840182804D1FFE77D2008
:1025E0000002029002E000200290FFE7FFE7FFE711
:1025F000FFE7FFE7029808B080BDC0460810024020
:102600000C10024000127A000024F4000010024076
:1026100010B588B006900698002804D1FFE707A9F6
:10262000012008702AE306980078C007002800D12E
:1026300088E0FC480068382108400490FA480068A7
:102640000321084003900498102804D1FFE7039861
:10265000032804D0FFE70498082810D1FFE7F848C2
:1026600000688003002809D5FFE706984068002825
:1026700004D1FFE707A901200870FFE261E0FFE74E
:102680000698406801210904884207D1FFE7EC4918
:10269000086801221204104308601DE00698406893
:1026A0000521090488420BD1FFE7E54908680122AA
:1026B00093041843086008681204104308600AE095
:1026C000DF490868012213049843086008689204EF
:1026D00090430860FFE7FFE7FFE70698406800289F
:1026E00017D0FFE7FFF704FD0590FFE7D448006827
:1026F000800300280CD4FFE7FFF7FAFC0599401A85
:10270000652804D3FFE707A903200870B6E2EDE7C8
:1027100016E0FFF7EDFC0590FFE7C948006880036D
:1027200000280CD5FFE7FFF7E3FC0599401A652860
:1027300004D3FFE707A9032008709FE2EDE7FFE756
:10274000FFE7FFE7069800788007002800D4A3E0A1
:10275000B4480068382108400490B3480068032159
:10276000084003900498102804D1FFE7039802283A
:1027700004D0FFE7049800283BD1FFE7B048006889
:102780004005002809D5FFE70698C068002804D155
:10279000FFE707A90120087070E2AA4908687F22B4
:1027A00012029043069A526912021043086004987C
:1027B000002811D1FFE7A24802680721C9028A4315
:1027C000069B1B691A43026000680840C10A9E48C4
:1027D000C8409E490860FFE79D480068FFF7B4FCC9
:1027E000002804D0FFE707A90120087046E2FFE7B0
:1027F00051E00698C06800282FD0FFE7904908688C
:102800000722D2029043069A1269104308600868B2
:102810000122120210430860FFF76AFC0590FFE7EF
:1028200087480068400500280CD4FFE7FFF760FCEC
:102830000599401A032804D3FFE707A9032008706D
:102840001CE2EDE77F4908687F2212029043069A56
:1028500052691202104308601CE07949086801229D
:10286000120290430860FFF743FC0590FFE77448AD
:102870000068400500280CD5FFE7FFF739FC0599F3
:10288000401A032804D3FFE707A903200870F5E1E5
:10289000EDE7FFE7FFE7FFE706980078000700286D
:1028A00056D5FFE7F748006838210840182810D1AE
:1028B000FFE7F74800688007002809D5FFE706987A
:1028C0008069002804D1FFE707A901200870D5E13D
:1028D0003DE00698806900281CD0FFE7EC490868B5
:1028E000012210430860FFF703FC0590FFE7E8486A
:1028F0000068800700280CD4FFE7FFF7F9FB059973
:10290000401A032804D3FFE707A903200870B5E1A4
:10291000EDE71BE0DE490868012290430860FFF7FD
:10292000E7FB0590FFE7DA480068800700280CD530
:10293000FFE7FFF7DDFB0599401A032804D3FFE703
:1029400007A90320087099E1EDE7FFE7FFE7FFE73C
:10295000069800784007002800D4CAE002A90020A9
:102960000870C848006838210840202810D1FFE7C7
:10297000CA4800688007002809D5FFE706988068E4
:10298000002804D1FFE707A90120087076E1AFE035
:10299000C0480068C000002810D4FFE7FFE7BD482A
:1029A0000268012109070A4302600068084001909B
:1029B0000198FFE702A901200870FFE7B648006808
:1029C000C00500281DD4FFE7B349086801221202A0
:1029D00010430860FFF78CFB0590FFE7AE480068E6
:1029E000C00500280CD4FFE7FFF782FB0599401AC9
:1029F000032804D3FFE707A9032008703EE1EDE7B1
:102A0000FFE7FFE706988068012806D1FFE7A349A2
:102A1000086801221043086027E0069880680528AE
:102A200018D103E0081002400C1002409B490868CE
:102A3000042210430860086801221043086013E074
:102A400000100240041002400024F40000000020A6
:102A50001800002091490868012290430860086826
:102A6000042290430860FFE7FFE7FFE706988068CD
:102A7000002818D0FFE7FFF73BFB0590FFE78748EA
:102A80000068800700280DD4FFE7FFF731FB0599A8
:102A9000401A8349884204D3FFE707A9032008703E
:102AA000ECE0ECE717E0FFF723FB0590FFE77B483E
:102AB0000068800700280DD5FFE7FFF719FB05998F
:102AC000401A7749884204D3FFE707A9032008701A
:102AD000D4E0ECE7FFE702A80078012807D1FFE780
:102AE0006C4908680122120790430860FFE7FFE77E
:102AF000FFE70698C069002800D1BBE06148006884
:102B000038210840102876D0FFE70698C0690228CF
:102B10004ED1FFE75D490868012212069043086024
:102B2000FFF7E6FA0590FFE75848006880010028A3
:102B30000CD5FFE7FFF7DCFA0599401A032804D308
:102B4000FFE707A90320087098E0EDE74E49086801
:102B5000554A1040069B1A6A5C6A22439C6A24020A
:102B60002243DC6A22431B6B1A4310430860474B25
:102B700018680122140620431860086812071043E1
:102B80000860FFF7B5FA0590FFE74048006880014C
:102B900000280CD4FFE7FFF7ABFA0599401A032889
:102BA00004D3FFE707A90320087067E0EDE721E001
:102BB000364908680122120690430860FFF798FA28
:102BC0000590FFE731480068800100280CD5FFE739
:102BD000FFF78EFA0599401A032804D3FFE707A9E7
:102BE000032008704AE0EDE7274908682D4A1040A5
:102BF0000860FFE73DE00698C069012804D1FFE7BF
:102C000007A90120087039E01F4800680390039865
:102C1000032108400699096A884224D1FFE70398F6
:102C2000702108400699496A88421CD1FFE7039841
:102C30007F21090208400699896A0902884212D157
:102C4000FFE703981F21490408400699C96A884292
:102C500009D1FFE703980721490708400699096B46
:102C6000884204D0FFE707A90120087006E0FFE7CB
:102C7000FFE7FFE707A900200870FFE707A8007833
:102C800008B010BD081002400C10024000100240B5
:102C9000601002403C100240007000405C10024096
:102CA00089130000FCFFFEEF8C80C11F80B582B04D
:102CB0000190019800F076FD02B080BDFFE7FEE7CD
:102CC00080B584B0D749039108682E4A019210401C
:102CD000086000F01BF803990868012213030293AF
:102CE000984308600868D2021043086000F00EF8AC
:102CF000019B029A0399086818400860086810430D
:102D0000086000F003F804B080BDC04686B0002023
:102D100005900490FFE704990598820789088B18AD
:102D2000810800207C22D21A884109D3FFE7FFE7FF
:102D3000059804990022491C504104910590EAE746
:102D400006B0704780B582B0F949019108680D4A14
:102D5000009210400860FFF7D9FF0199086801222E
:102D60001303184308600868D20210430860FFF795
:102D7000CDFF009A0199086810400860FFF7C6FF70
:102D800002B080BDFFF7FFFF80B586B005A9002027
:102D9000087004A90870FFE704A8007807282BDC56
:102DA000FFE70598400005A90870E149029108680D
:102DB00001220392D202019290430860FFF7A6FF1E
:102DC000019A0299086810430860FFF79FFF039972
:102DD000052000070903FFF771F9002806D0FFE777
:102DE00005980121084305A90870FFE7FFE704984B
:102DF000401C04A90870CFE705A8007806B080BD84
:102E000010B586B004AC207003A80170029201A82E
:102E1000037000F0D3F8002804D1FFE705A90020D3
:102E2000087061E004A8007800F062F800F040F952
:102E3000002806D1FFE700F0F9F805A90020087086
:102E400052E003A8007800F053F800F031F90028B0
:102E500006D1FFE700F0EAF805A90020087043E07A
:102E600000F0ACF8002804D1FFE705A900200870A5
:102E70003AE004A800780121084300F039F800F096
:102E800017F9002806D1FFE700F0D0F805A90020C7
:102E9000087029E0694600200880FFE7684600883E
:102EA00001A90978884217DAFFE7FFF76DFF0146AD
:102EB000029A68460388D154008801A90978491EFE
:102EC000884203DAFFE7FFF7FBFEFFE7FFE7009822
:102ED000401C69460880E1E7FFF734FF00F0A6F8E0
:102EE00005A901200870FFE705A8007806B010BD0D
:102EF00080B582B001A90870694600200870FFE71C
:102F00006846007807282EDCFFE789490868012217
:102F1000D20290430860FFF7F9FE01A8007800068E
:102F2000002807D5FFE782490868012212031043F1
:102F3000086006E07E490868012212039043086099
:102F4000FFE70198400001A908707949086801224B
:102F5000D20210430860FFF7D9FEFFE70098401C3B
:102F600069460870CCE702B080BDC04680B586B027
:102F7000002005900490039002900190FFE70E4816
:102F8000026801210A43026000680840009000982E
:102F9000FFE70320C002019011200290012003905E
:102FA000022004900520000701A9FEF71FFF00F092
:102FB0003DF806B080BDC0463410024080B584B0F4
:102FC0005B4908680122D3021843086008681203AD
:102FD000029210430860FFF799FE0299052000074E
:102FE000FFF76CF8002804D1FFE703A90020087060
:102FF00013E04F49019108680B4A009210400860A5
:10300000FFF784FE009A0199086810400860FFF7F6
:103010007DFE03A901200870FFE703A8007804B033
:1030200080BDC04614000050FFEFFFFF80B584B0A4
:103030003F49086801221303029398430860086817
:10304000D20210430860FFF761FE029905200007D5
:10305000FFF734F8002804D0FFE703A90020087028
:1030600021E03349086801221203019210430860ED
:10307000FFF74CFE019905200007FFF71FF8002815
:1030800004D1FFE703A9002008700CE02849086874
:1030900001220092120310430860FFF737FE0098E8
:1030A00003A90870FFE703A8007804B080BDC046FC
:1030B00080B586B01E490391086801220192D202B0
:1030C000029290430860FFF721FE019B029A039948
:1030D00008681B03049318430860086810430860DD
:1030E000FFF714FE049905200007FEF7E7FF00280C
:1030F0000CD0FFE70E4908680122D2029043086015
:10310000FFF704FE05A9002008700CE008490868D4
:1031100001220092D20290430860FFF7F7FD009869
:1031200005A90870FFE705A8007806B080BDC04675
:1031300014000050FFE7FEE77047000010B58AB0AA
:103140000C9C0990089107920693B2480290FFE701
:1031500002980078002803D1FFE700F08FFBFFE71B
:10316000FFE7AC4804900998022829D8FFE7EFF35D
:103170001080012181F3108801900498099A182188
:103180005143401860300390099800280FD0FFE7A2
:10319000089803990860079803994860069803996E
:1031A00088600399002008610399C860FFE70C98C4
:1031B00003994861019880F310880020059003E08E
:1031C0000020C0430590FFE705980AB010BDC04637
:1031D00010B58AB00C9C09900891079206938D480F
:1031E0000290FFE702980078002803D1FFE700F083
:1031F00045FBFFE7FFE7874804900998022829D894
:10320000FFE7EFF31080012181F31088019004980B
:10321000099A182151434018183003900998002842
:103220000FD0FFE708980399086007980399486052
:103230000698039988600399002008610399C86083
:10324000FFE70C9803994861019880F310880020EB
:10325000059003E00020C0430590FFE705980AB001
:1032600010BDC04680B588B007A9087069480290B3
:10327000FFE702980078002803D1FFE700F0FEFA8C
:10328000FFE7FFE70020039006A9FF20087007A8CA
:1032900000780F2839D8FFE707A801781E48405C5E
:1032A00006A948705B4818300590EFF310800121A3
:1032B00081F3108801900598406903210840022895
:1032C00009D1FFE7079815490870059806A9022259
:1032D00000F04CFD15E0059800F01AFB04900498EE
:1032E000022809D3FFE707980C490870059806A93A
:1032F000022200F0ABFD03E00020C0430390FFE793
:10330000FFE7019880F3108803E00020C04303909A
:10331000FFE7039808B080BD040000208000002073
:1033200080B586B00590049103923A480190FFE77A
:1033300001980078002803D1FFE700F09FFAFFE72B
:10334000FFE7EFF31080012181F3108800900598CA
:103350000499039A00F008F80290009880F310880E
:10336000029806B080BDC04680B58AB00990089129
:10337000079208980490099818214143254840185D
:1033800018300390039840690290002808D0FFE7A6
:103390000298012819D0FFE7029802282CD032E0C9
:1033A000039800F0B5FA059005980799884203D272
:1033B000FFE70020069007E007980690039804991D
:1033C000079A00F043FDFFE720E0039800F0A0FA21
:1033D000059005980799884203D2FFE70598019068
:1033E00002E007980190FFE701980690039804997E
:1033F000069A00F02BFD09E003980499079A00F063
:10340000B5FC069002E000200690FFE706980AB09F
:1034100080BDC0468400002080B584B00390029136
:103420000298FCF76BFF019003980299019AFFF74D
:1034300077FF04B080BD82B080B584B00793069258
:103440000390029106A80090039802996A4600F042
:1034500009F80190019804B080BC02BC02B08E460D
:103460007047000080B5A4B023902291219207A854
:103470001B9040201C9000201D9023991F911E90AE
:10348000FFE72298017820A801702299491C229117
:103490000078002801D1FFE76DE120A800782528F9
:1034A00000D05DE10020189001201A90FFE72298DB
:1034B000017820A801700078233804900D2841D8A5
:1034C0000498810001A040588746C0463535000861
:1034D00045350008453500084535000845350008E4
:1034E00045350008453500084535000825350008F4
:1034F0004535000805350008453500084535000804
:103500001535000818980121084318902298401C8E
:1035100022901AE018980221084318902298401C23
:10352000229012E018980421084318902298401C19
:1035300022900AE018980821084318902298401C0D
:10354000229002E000201A90FFE7FFE71A98002877
:10355000ADD1FFE700201790FFE72298017820A85F
:1035600001700078302805DBFFE720A800783A28B2
:1035700001DBFFE70FE02298401C229017980A21F8
:10358000414320A80078401830381790FFE7012009
:103590000028E2D1FFE7002019902298017820A8A6
:1035A000017000782E2823D1FFE72298401C22903A
:1035B000FFE72298017820A801700078302805DB09
:1035C000FFE720A800783A2801DBFFE70FE0229808
:1035D000401C229019980A21414320A800784018E5
:1035E00030381990FFE701200028E2D1FFE7FFE71C
:1035F0002298007820A90870FFE720A800786C289E
:1036000005D0FFE720A80078682808D1FFE72298B6
:10361000401C22902298007820A9087000E004E065
:10362000FFE701200028E8D1FFE720A800780390F9
:10363000252800D18AE00398582848D0FFE703984E
:10364000632814D0FFE7039864281ED0FFE703988F
:1036500070286BD0FFE70398732849D0FFE70398E1
:10366000752823D0FFE70398782830D073E0219A9B
:103670001068011D116000681A901A9906A801705F
:1036800001781BA800F038FB66E0219A1068011D44
:10369000116000681A901A99199B1798189A01924C
:1036A00000901BA80A2200F052F955E0219A1068F8
:1036B000011D116000681A901A99199B1798189AA1
:1036C000019200901BA80A2200F032FA44E0219AED
:1036D0001068011D116000681A901A99199B1798BB
:1036E000189A019200901BA8102200F021FA33E0F2
:1036F000219A1068011D116000680590FFE7059888
:10370000017820A801700599491C059100780028CE
:1037100001D1FFE709E020A801781BA800F0ECFA2E
:10372000FFE71E980028EAD5FFE715E0219A106808
:10373000011D116000681A901A9900200190082359
:1037400000931BA8102200F0F3F905E01BA8252127
:1037500000F0D2FA00E0FFE72298401C229005E03A
:1037600020A801781BA800F0C7FAFFE7FFE71E9822
:10377000002800D485E61E9801280FDBFFE71D987E
:10378000002806D0FFE723981D9A07A9FFF7C8FD78
:10379000FFE71D991E9840181E90FFE71E9824B061
:1037A00080BD704780B584B002900298401E000E24
:1037B000002803D0FFE70120039011E00298401E8B
:1037C0000949086000200190C043032100F080FBFC
:1037D000019806490860064A072111600390FFE737
:1037E000039804B080BDC04614E000E018E000E09B
:1037F00010E000E080B5FEF77FFC80BD10B594B00E
:1038000007A802903421FCF7FAFD002000900690F2
:10381000059004900390012001904002FEF7FEFC09
:10382000009A01990298022307930C020A940B92C2
:1038300040240C940E930F931092082211924A0484
:10384000129249071391FEF7E3FE002803D0FFE729
:10385000FEF7A5FAFFE7072003900221049100205C
:103860000590069003A8FEF717FD002803D0FFE798
:10387000FEF795FAFFE714B010BD704780B582B02F
:103880001E4801900198A821FCF7B9FD0199032079
:10389000086101994861019819498161019A1948A3
:1038A000D061019A012080021062019A002090628A
:1038B000019A5062019AD062019A1166019A1249E6
:1038C0005166019A10219166019908670199C866AD
:1038D000019948670090FFE700980F280BD8FFE791
:1038E000009A0A48801AC07B01998854FFE7009823
:1038F000401C0090F0E702B080BDC046840000206C
:10390000364700083C0100202C010020E04500085B
:1039100084B003900398006902900398C0680190F6
:1039200002980199884209D8FFE7039880680199B5
:10393000401A02994018401E009005E00299019833
:10394000C04340180090FFE7009804B07047B0B53E
:1039500090B0159C149C0F900E910D920C930E98A4
:10396000002804D5FFE70E984042099002E00E9827
:103970000990FFE709980A9001200B90FFE70A9849
:103980000D99884209DBFFE70A980D99FCF744FD81
:103990000A900B98401C0B90F1E70C980B99884209
:1039A00003D9FFE70C980B90FFE7149800280ED07E
:1039B000FFE70E98002806D4FFE715A80078400717
:1039C000002804D5FFE71498401E1490FFE715A8BF
:1039D00000788007002804D5FFE70C98002833D032
:1039E000FFE715A80078C00700282DD1FFE714983D
:1039F000002828D0FFE7FFE714990020002908904D
:103A00000DD0FFE70B99149A0120002306939142F1
:103A1000079001D30698079007980890FFE7089849
:103A2000C00700280ED0FFE71498401E14900F988E
:103A3000202100F061F90F98C068002801D5FFE748
:103A400000E0D9E7FFE7FFE70F98C06800286DD4D2
:103A5000FFE70E98002808D5FFE70E9840420E9029
:103A60000F982D2100F048F90CE015A800784007C8
:103A7000002805D5FFE70F982B2100F03DF900E065
:103A8000FFE7FFE70F98C06800284ED4FFE715A8AE
:103A900000788007002837D5FFE715A80078C00711
:103AA000002831D1FFE70C9800282DD1FFE71498AA
:103AB000002828D0FFE7FFE714990020002905908F
:103AC0000DD0FFE70B99149A012000230393914234
:103AD000049001D30398049004980590FFE705989B
:103AE000C00700280ED0FFE71498401E14900F98CE
:103AF000302100F001F90F98C068002801D5FFE7D8
:103B000000E0D9E7FFE7FFE70F98C06800280BD473
:103B1000FFE70F980E990D9A0C9B149C159D01952B
:103B2000009400F005F8FFE7FFE7FFE710B0B0BD35
:103B300010B590B0139C129C0F900E910D920C93A7
:103B40000E98099001200A900890FFE709980D99B6
:103B5000884209D3FFE709980D99FCF753FC0990B7
:103B60000898401C0890F1E70C980899884203D9FE
:103B7000FFE70C980890FFE713A80078C00700281B
:103B800040D1FFE7129800283BD0FFE713A8007848
:103B90008007002808D5FFE70C98002804D1FFE72C
:103BA00007A93020087003E007A920200870FFE76C
:103BB000FFE712990020002906900DD0FFE7089931
:103BC000129A0120002304939142059001D3049896
:103BD000059005980690FFE70698C00700280FD0CB
:103BE000FFE71298401E12900F9807A9097800F07D
:103BF00083F80F98C068002801D5FFE700E0D8E7F8
:103C0000FFE7FFE70F98C068002870D4FFE7FFE7E1
:103C10000C98022804D3FFE70C98401E0C900BE090
:103C20000E980A99FCF7EEFB0B900B980D998842C1
:103C300001D2FFE705E0FFE70D980A9948430A9093
:103C4000E6E7FFE70E980A99FCF7DCFB0B900B9870
:103C50000A9941430E98401A0E900F980B9A2549E5
:103C6000895C00F049F80F98C068002801D5FFE78B
:103C700009E00D990A98FCF7C5FB0A90FFE70A983E
:103C80000028DFD1FFE713A80078C00700282DD057
:103C9000FFE71298002828D0FFE7FFE712990020DD
:103CA000002903900DD0FFE70899129A0120002304
:103CB00001939142029001D30198029002980390DF
:103CC000FFE70398C00700280ED0FFE71298401EB8
:103CD00012900F98202100F00FF80F98C06800286C
:103CE00001D5FFE700E0D9E7FFE7FFE7FFE710B006
:103CF00010BDC046F145000880B584B0039002A80D
:103D000001700398806801900198401C03994968EC
:103D100088420ED8FFE7029803990968019A8854EF
:103D20000198401C039988600399C868401CC860CA
:103D3000FFE7039988684968884215D1FFE7039A2D
:103D4000106911689268FFF7EBFA03998968884255
:103D500005D0FFE703990020C043C86003E0039942
:103D600000208860FFE7FFE704B080BD80B58AB01F
:103D7000099008910792002005900998C068039067
:103D8000FFE709980069049004980399884206D9CE
:103D9000FFE704990398C0434018069008E009988B
:103DA00081680398049A801AC04340180690FFE780
:103DB000069809998968039A891A884203D2FFE70D
:103DC0000698019005E0099880680399401A0190CF
:103DD000FFE70198069006980799884203D2FFE70B
:103DE0000698009002E007980090FFE70098069080
:103DF0000998406803994018029002980899069A19
:103E0000FCF79EFA069905984018059006990898BF
:103E10004018089006990798401A07900699039849
:103E200040180390039809998968884203D1FFE7F5
:103E300000200390FFE703980999C860FFE70798FF
:103E400000289ED1FFE705980AB080BD80B588B0F4
:103E50000790069105920798C068039007988068BC
:103E60000399401A029002980599884210D9FFE7F9
:103E70000798406803994018019001980699059A9F
:103E8000FCF75EFA0398059940180799C8601DE091
:103E9000029804900798406803994018019001988F
:103EA0000699049AFCF74CFA05980299401A049076
:103EB00007984068019001980699029A8918049A17
:103EC000FCF73EFA04980799C860FFE708B080BD88
:103ED00070B582B0024601A80270009100214056E0
:103EE000002816D4FFE7002401A908570322D34372
:103EF0001840174A805809578C07E50EFF24AC403C
:103F0000A043009CA401E4B2AC4020431940885077
:103F10001AE001A908780F24204008380322D3436F
:103F200018400A4A8058002549578D07EE0EFF2594
:103F3000B540A843009DAD01EDB2B54028432140F6
:103F4000083919408850FFE702B070BD1CED00E051
:103F500000E400E0B0B5AEB02D9001200490FFF772
:103F600081F900F003F92D9908812D980821069117
:103F7000425E6F4900200C90FFF75DFA0498FDF750
:103F800015FF00F007F901460C982D9A51822D99E2
:103F90004A8A6849FFF74FFA0498FDF707FF00F0D7
:103FA0000BF901460C982D9AD1822D99CA8A624943
:103FB000FFF741FA0498FDF7F9FE00F00FF901460A
:103FC0000C982D9A91802D998A885C49FFF733FAD5
:103FD0000498FDF7EBFE00F013F901460C982D9ABA
:103FE00091822D9914228A5E5549FFF724FA04988C
:103FF000FDF7DCFE00F018F901460C982D9A51806F
:104000002D994A884F49FFF716FA0498FDF7CEFE1E
:1040100000F01CF901460C982D9A11702D990A7820
:104020004949FFF708FA0498FDF7C0FE00F020F9AF
:1040300001460C982D9A11732D990A7B4349FFF77D
:10404000FAF90498FDF7B2FE00F024F901460C9845
:104050002D9A51812D990A228A5E3D49FFF7EBF98D
:104060000498FDF7A3FE00F029F901460C982D9A5B
:10407000D1812D99CA893749FFF7DDF90498FDF7F9
:1040800095FE00F02DF901460C982D9A11822D997C
:104090000A8A3149FFF7CFF90498FDF787FE00F04F
:1040A00031F901460C982D9AD1802D99CA882B4957
:1040B000FFF7C1F90498FDF779FE0C982849FFF73E
:1040C000BAF90C98FFF7CEF82D9805900078FCF718
:1040D00059FBFCF751FA0246059807920891C088EF
:1040E000FCF750FB1F49FCF771FAFCF745FA024652
:1040F000059809920A4606990A92405EFCF73AFB37
:10410000FCF73AFA079A089B044609980D460A9963
:10411000039502940191009013490DA80B90FCF7B0
:10412000D7F80B990C98FFF777F92EB0B0BDC046C1
:1041300046460008A446000829470008C84600086B
:104140005D460008E54600080F4600081A460008CC
:104150007F46000813470008FE4600089546000801
:104160002546000800007A44B546000880B584B0B2
:1041700003A80A21017002AA019200210091118076
:104180000178AA200223FEF73BFE00990198405EC9
:1041900004B080BD80B584B003A82C21017002AAB0
:1041A0000192002111800178AA200223FEF728FE47
:1041B0000198008804B080BD80B584B003A80E21AA
:1041C000017002AA0192002111800178AA20022325
:1041D000FEF716FE0198008804B080BD80B584B05B
:1041E00003A80621017002AA019200211180017822
:1041F000AA200223FEF704FE0198008804B080BDC7
:1042000080B584B003A83221017002AA0192002176
:10421000009111800178AA200223FEF7F1FD009998
:104220000198405E04B080BD80B584B003A804212D
:10423000017002AA0192002111800178AA200223B4
:10424000FEF7DEFD0198008804B080BD80B584B023
:1042500003AA01920020107002A8022101700178C7
:10426000AA200123FEF7CCFD0198007804B080BDA0
:1042700080B584B003A82E21017002AA019200210A
:1042800011700178AA200123FEF7BAFD0198007889
:1042900004B080BD80B584B003A80C21017002AACF
:1042A00001920021009111800178AA200223FEF7DB
:1042B000A7FD00990198405E04B080BD80B584B030
:1042C00003A81821017002AA01920021118001782F
:1042D000AA200223FEF794FD0198008804B080BD57
:1042E00080B584B003A81A21017002AA01920021AE
:1042F00011800178AA200223FEF782FD0198008830
:1043000004B080BD80B584B003A80821017002AA62
:104310000192002111800178AA200223FEF770FD8E
:104320000198008804B080BD80B584B00020029060
:104330000390FDF7EDFEFFF761FAFEF717FE029816
:10434000FEF790FF029B00930A4918461A46FEF7B3
:104350003FFF029B0093084918461A46FEF7EEFEFF
:10436000FFE70648FFF7F6FD7D208000FDF71EFD04
:10437000F7E7C04609460008014600083C05002052
:10438000F8B5040C8BB2264682B25E431046584301
:104390000D0C370C360400218019164679416E4306
:1043A000370C36048019264679416E438919F8BDC9
:1043B0004900CA020243100000D004204A0D01D077
:1043C00001221043044A490D914201D102210843C0
:1043D000012800D105207047FF07000030380A2867
:1043E00001D20120704700207047000010B500295D
:1043F0000AD00878002807D005487844FDF784FCE7
:10440000002801D0002010BD0248784410BD0000F3
:10441000660300005E03000010B500290AD008788A
:10442000002807D005487844FDF76EFC002801D02D
:10443000002010BD0248784410BD00005603000063
:104440004E03000003B402487844844603BC60472E
:1044500059CBFFFF03B402487844844603BC60474D
:10446000C1CDFFFF8182838485868788898B8C8D6F
:104470008E8F919293959697999A9C9D9FA0A2A3B7
:10448000A5A7A8AAACAEB0B2B3B5B7B9BCBEC0C2FE
:10449000C5C7C9CCCED1D4D7D9DCDFE2E6E9ECF090
:1044A000F3F7FAFE00000000000000003031323364
:1044B0003435363738394142434445464030580058
:1044C000303132333435363738396162636465668A
:1044D00040307800040000080000000000000002E6
:1044E000000100001030313233343536373839614D
:1044F0006263646566787000303132333435363744
:1045000038394142434445465850000002400000BB
:10451000000000A00000000005400000000000C8EE
:10452000000000000C4000000000409C0000000063
:10453000194000000020BCBE000000003440000014
:10454000BFC91B8E00000004B5400000504BCFD007
:104550006607E2CF010000006C4100003E8251AAD4
:10456000DFEEA73401000000D9420000DCB5A0E274
:104570003A301F97FFFFFFFFB4450000FD25A0C89C
:10458000E9A3C14FFFFFFFFFFF3F000000000080D5
:1045900000000000FF3F000000000080000000005D
:1045A000000000000000000000000000000000000B
:1045B00000000000000000000000000000000000FB
:1045C00001000000020000000300000004000000E1
:1045D00006000000070000000800000009000000BD
:1045E00000000000000054545220524547474553F4
:1045F000003031323334353637383941424344455F
:1046000046525454444F574E005254545550007320
:104610006F633A256425250D0A00736F683A256497
:1046200025250D0A003D3D3D3D3D3D3D3D3D3D3D8A
:104630003D3D3D3D3D3D3D3D3D3D3D3D3D3D3D3DAA
:104640003D3D3D0D0A00617665726167655F63758A
:104650007272656E743A25646D410D0A007265636D
:104660006F6D6D656E6465645F6368617267655FD9
:1046700063757272656E743A25646D410D0A00743B
:10468000656D70657261747572653A25642F302EA0
:10469000314B0D0A00766F6C746167653A25646D65
:1046A000560D0A006379636C655F636F756E743ACB
:1046B00025640D0A00252E33662C20252E33662C0A
:1046C00020252E33660D0A0066756C6C5F63686189
:1046D0007267655F63617061636974793A25646DBF
:1046E00041680D0A0072656D61696E675F63617094
:1046F00061636974793A25646D41680D0A007469D3
:104700006D655F746F5F66756C6C3A25646D696E7C
:104710000D0A0074696D655F746F5F656D70747903
:104720003A25646D696E0D0A00666C6167733A30F4
:104730007825780D0A005465726D696E616C000011
:10474000904800080000002020000000040100083C
:10475000B048000820000020380B000020010008AD
:104760001C00000043000000F8FFFFFF0C000000E9
:104770000E0000000F0000002E00000010010000DD
:1047800043000000F8FFFFFF004040404040404031
:104790004040414141414140404040404040404014
:1047A00040404040404040404005020202020202B8
:1047B0000202020202020202022020202020202007
:1047C000202020020202020202029090909090901B
:1047D00010101010101010101010101010101010D9
:1047E000101010100202020202028888888888884D
:1047F0000808080808080808080808080808080839
:104800000808080802020202400000000000000040
:104810000000000000000000000000000000000098
:104820000000000000000000000000000000000088
:104830000000000000000000000000000000000078
:104840000000000000000000000000000000000068
:104850000000000000000000000000000000000058
:104860000000000000000000000000000000000048
:104870000000000000000000000000000000000038
:104880000000000000000000000000000000000028
:104890000024F40030313233343536373839414270
:1048A00043444546010000000400000000000000F1
:04000005080000C12E
:00000001FF
