:020000040800F2
:10000000900600206501000849170008D112000879
:1000100000000000000000000000000000000000E0
:100020000000000000000000000000004F17000862
:1000300000000000000000004D170008A117000894
:100040007701000800000000770100087701000830
:1000500077010008770100087701000877010008A0
:100060000000000077010008770100087701000810
:100070007701000877010008770100080000000000
:100080007701000800000000000000007701000870
:1000900000000000770100087701000877010008E0
:1000A0007701000877010008770100087701000850
:1000B00077010008000000000000000000000000C0
:1000C00000F002F800F03EF80CA030C80838241800
:1000D0002D18671EA246AB4654465D46AC4201D180
:1000E00000F030F87E460F3EB6460FCC0126334274
:1000F00000D0FB1A3343A246AB461847A41A0000AF
:10010000C41A0000103A02D378C878C1FAD852074E
:1001100001D330C830C101D504680C6070470000BD
:100120000023002400250026103A01D378C1FBD813
:10013000520700D330C100D50B6070471FB51FBDFB
:1001400010B510BD00F003F91146FFF7F7FF01F0FD
:10015000F1FC00F01BF903B4FFF7F2FF03BC00F061
:1001600021F900000748804707480047FEE7FEE7FF
:10017000FEE7FEE7FEE7FEE704480549054A064BB1
:100180007047000027180008C100000890000020F8
:1001900090060020900200209002002001E004C0A0
:1001A000091F0429FBD28B0701D50280801CC907D7
:1001B00000D00270704700290BD0C30702D0027034
:1001C000401C491E022904D3830702D50280801CEB
:1001D000891EE3E70022EEE70022DFE700220309A1
:1001E0008B422CD3030A8B4211D300239C464EE052
:1001F00003460B433CD4002243088B4231D303090E
:100200008B421CD3030A8B4201D394463FE0C309BF
:100210008B4201D3CB01C01A524183098B4201D3D7
:100220008B01C01A524143098B4201D34B01C01AC2
:10023000524103098B4201D30B01C01A5241C3083A
:100240008B4201D3CB00C01A524183088B4201D3A9
:100250008B00C01A524143088B4201D34B00C01A95
:100260005241411A00D201465241104670475DE0AA
:10027000CA0F00D04942031000D3404253409C466D
:10028000002203098B422DD3030A8B4212D389012A
:10029000FC2212BA030A8B420CD3890192118B42C1
:1002A00008D3890192118B4204D389013AD092116B
:1002B00000E08909C3098B4201D3CB01C01A524126
:1002C00083098B4201D38B01C01A524143098B42EF
:1002D00001D34B01C01A524103098B4201D30B01D8
:1002E000C01A5241C3088B4201D3CB00C01A5241FD
:1002F00083088B4201D38B00C01A5241D9D24308E4
:100300008B4201D34B00C01A5241411A00D2014620
:100310005241104663465B1001D34042002B00D58A
:100320004942704763465B1000D3404201B505491E
:10033000002802DC491C084000E00846C046C046D0
:1003400002BD00BFFFFFFF7F7047704770477546D3
:1003500000F024F8AE46050069465346C008C000C8
:10036000854618B020B5FFF707FF60BCB6460026EB
:100370000027C0C5C0C5C0C5C0C5C0C5C0C5C0C5B3
:10038000C0C5403D490849008D46704710B5044638
:10039000C046C0462046FFF7DEFE10BD004870474D
:1003A0001000002001491820ABBEFEE72600020025
:1003B000704781B0EFF3108072B60090FFE7FEE760
:1003C00080B584B0039000F09DF9029003980190ED
:1003D0000198401C002806D0FFE7D048017801981A
:1003E00040180190FFE7FFE700F08CF90299401AEE
:1003F0000199884201D2FFE7F6E704B080BDC0460C
:100400008AB00990089100200790FFE708980068DB
:100410000799C840002800D147E108980068079A6A
:1004200001219140084006900698002800D138E14B
:100430000898406803210840012807D0FFE7089882
:1004400040680321084002282CD1FFE70998806802
:100450000590079840000321814005988843059046
:100460000898C168079840008140059808430590A6
:1004700005980999886009984068059007980121B6
:1004800081400598884305900898406810210840ED
:100490000109079881400598084305900598099936
:1004A0004860FFE70898406803210840032816D0F9
:1004B000FFE70998C0680590079840000321814034
:1004C0000598884305900898816807984000814006
:1004D00005980843059005980999C860FFE70898B2
:1004E000406803210840022820D1FFE709980799B6
:1004F000C90889004018006A059007984007C00E97
:100500000F21814005988843059008980169079854
:100510004007C00E81400598084305900598099949
:10052000079AD208920089180862FFE709980068C4
:10053000059007984100032002468A40059991439F
:100540000591089949680140079840008140059845
:1005500008430590059809990860089880798007F4
:10056000002800D19CE00798032188435049405857
:10057000059007988007C00E0F2181400598884399
:100580000590099805210907884203D1FFE700205B
:10059000049022E009984749884203D1FFE70120EF
:1005A000039017E009984449884203D1FFE70220ED
:1005B00002900CE00999414A0320052300939142DF
:1005C000019001D00098019001980290FFE70298F5
:1005D0000390FFE703980490FFE7049907988007CA
:1005E000C00E81400598084305900598079903229D
:1005F00091432F4A88503248006805900699059823
:100600008843059008988079C006002805D5FFE743
:100610000699059808430590FFE705982849086062
:100620002848006805900699059888430590089821
:1006300080798006002805D5FFE7069905980843CC
:100640000590FFE705981F4908601F48006805905E
:1006500006990598884305900898807980070028B6
:1006600005D5FFE70699059808430590FFE705982B
:100670001549086015480068059006990598884353
:10068000059008988079C007002805D0FFE70699F3
:10069000059808430590FFE705980C490860FFE7B7
:1006A000FFE70798401C0790B0E60AB07047C046C5
:1006B000601802400004005000080050000C005078
:1006C00000180240041802408418024080180240BA
:1006D00084B0009101460098039102A90880039814
:1006E00000690988084204D0FFE701A901200870C9
:1006F00003E001A900200870FFE701A8007804B01A
:1007000070470000064800687047C04631480278CC
:1007100003490868801808607047C046040000203C
:100720008800002080B582B001A900200870EE4941
:1007300008680122120210430860032000F00EF83E
:10074000002804D0FFE701A90120087002E000F0B2
:1007500043F8FFE701A8007802B080BD80B584B0FF
:10076000039002A9002008701A480078002829D0B8
:10077000FFE7E14800680190164801787D20C0003D
:10078000FFF72CFD01460198FFF728FD00F098FDCA
:10079000002812D1FFE70398032809D8FFE703993F
:1007A0000022D04300F036F80398D449086003E0F3
:1007B00002A901200870FFE703E002A901200870E8
:1007C000FFE703E002A901200870FFE702A8007814
:1007D00004B080BD0400002082B0FFE70B4802682F
:1007E00001210A4302600068084001900198FFE778
:1007F000FFE707480268012109070A430260006811
:10080000084000900098FFE702B070474010024097
:100810003C10024080B584B0034603A803700291E7
:10082000019200214056029900F0FEFF04B080BD05
:1008300080B584B002901A4908680322520290439E
:10084000029A1043086002980121490288421ED191
:10085000FFE7A9480168062048431249FFF7BEFC9C
:10086000401C0190FFE710480068400500280DD5A6
:10087000FFE70198002804D0FFE70198401E01908F
:1008800003E003A90320087005E0ECE7FFE703A9F4
:1008900000200870FFE703A8007804B080BDC046C0
:1008A0000070004040420F001470004080B584B0DA
:1008B000029001910298002804D1FFE703A90120CA
:1008C00008700CE1019888490968072211408842A4
:1008D00021D9FFE78449086807229043019A104311
:1008E0000860FFF70FFF0090FFE77F4800680721CF
:1008F0000840019988420DD0FFE7FFF703FF0099F8
:10090000401A7F49884204D3FFE703A903200870F7
:10091000E5E0EAE7FFE7029800788007002817D5AE
:10092000FFE7029800784007002807D5FFE7B8499D
:1009300008680722120310430860FFE7B4490868FB
:100940000F2212029043029A926810430860FFE758
:1009500002980078C007002872D0FFE7029840682C
:1009600001280BD1FFE7AE4800688003002804D4BB
:10097000FFE703A901200870B1E03DE0029840685C
:1009800002280BD1FFE7A64800688001002804D4A4
:10099000FFE703A901200870A1E02CE0029840685D
:1009A00000280BD1FFE79E4800684005002804D4CA
:1009B000FFE703A90120087091E01BE0029840685E
:1009C00003280BD1FFE74A4800688007002804D4B9
:1009D000FFE703A90120087081E00AE043480068AE
:1009E0008007002804D4FFE703A90120087076E0FF
:1009F000FFE7FFE7FFE7FFE7854908680722904325
:100A0000029A526810430860FFF77CFE0090FFE7EF
:100A10007F4800683821084002994968C900884227
:100A20000DD0FFE7FFF76EFE0099401A3449884267
:100A300004D3FFE703A90320087050E0E8E7FFE7CD
:100A400001982949096807221140884221D2FFE70D
:100A50002549086807229043019A10430860FFF770
:100A600051FE0090FFE720480068072108400199E7
:100A700088420DD0FFE7FFF745FE0099401A204954
:100A8000884204D3FFE703A90320087027E0EAE7C0
:100A9000FFE702980078400700280AD5FFE75C4985
:100AA0000868072212039043029AD2681043086034
:100AB000FFE700F027F8564909680F22120211409B
:100AC0008A090C4989581F221140C8400A49086008
:100AD0000A480068FFF742FE03A90870FFE703A871
:100AE000007804B080BDC046002002405C10024087
:100AF00060100240601B0008000000200800002079
:100B00008913000080B588B0414800688006400F16
:100B100000280FD1FFE7424800680721C9020840BA
:100B2000C10A01208840039003993C48FFF756FB17
:100B3000029069E03648006838210840082803D14F
:100B4000FFE7354802905EE03148006838210840F0
:100B500010283CD1FFE72F4801680322114006917D
:100B60000068702108400009401C0490069801901C
:100B7000022812D0FFE7019803280FD1FFE704995C
:100B80002548FFF72BFB0146224800687F2212020E
:100B90001040000A484307900EE0FFE704991F4801
:100BA000FFF71CFB01461B4800687F221202104021
:100BB000000A48430790FFE716480068400F401CB2
:100BC000059007980599FFF709FB02901AE0104875
:100BD000006838210840202804D1FFE70120C00325
:100BE00002900EE00A48006838210840182804D115
:100BF000FFE77D200002029002E000200290FFE764
:100C0000FFE7FFE7FFE7FFE7029808B080BDC046B7
:100C1000081002400C10024000127A000024F40078
:100C20000010024010B588B006900698002804D144
:100C3000FFE707A9012008702AE306980078C0079B
:100C4000002800D188E0FC48006838210840049062
:100C5000FA4800680321084003900498102804D142
:100C6000FFE70398032804D0FFE70498082810D171
:100C7000FFE7F84800688003002809D5FFE70698D9
:100C80004068002804D1FFE707A901200870FFE2AF
:100C900061E0FFE70698406801210904884207D116
:100CA000FFE7EC49086801221204104308601DE0C8
:100CB000069840680521090488420BD1FFE7E54901
:100CC000086801229304184308600868120410435E
:100CD00008600AE0DF4908680122130498430860AD
:100CE0000868920490430860FFE7FFE7FFE7069873
:100CF0004068002817D0FFE7FFF704FD0590FFE7E5
:100D0000D4480068800300280CD4FFE7FFF7FAFC02
:100D10000599401A652804D3FFE707A90320087046
:100D2000B6E2EDE716E0FFF7EDFC0590FFE7C948F6
:100D30000068800300280CD5FFE7FFF7E3FC059966
:100D4000401A652804D3FFE707A9032008709FE233
:100D5000EDE7FFE7FFE7FFE7069800788007002848
:100D600000D4A3E0B4480068382108400490B34898
:100D700000680321084003900498102804D1FFE77D
:100D80000398022804D0FFE7049800283BD1FFE72E
:100D9000B04800684005002809D5FFE70698C068FC
:100DA000002804D1FFE707A90120087070E2AA49D2
:100DB00008687F2212029043069A52691202104379
:100DC00008600498002811D1FFE7A24802680721B3
:100DD000C9028A43069B1B691A43026000680840E7
:100DE000C10A9E48C8409E490860FFE79D480068C8
:100DF000FFF7B4FC002804D0FFE707A90120087022
:100E000046E2FFE751E00698C06800282FD0FFE7D0
:100E1000904908680722D2029043069A126910434B
:100E2000086008680122120210430860FFF76AFC9C
:100E30000590FFE787480068400500280CD4FFE7CD
:100E4000FFF760FC0599401A032804D3FFE707A9C0
:100E5000032008701CE2EDE77F4908687F22120238
:100E60009043069A52691202104308601CE07949C7
:100E700008680122120290430860FFF743FC0590C6
:100E8000FFE774480068400500280CD5FFE7FFF72E
:100E900039FC0599401A032804D3FFE707A903206A
:100EA0000870F5E1EDE7FFE7FFE7FFE70698007858
:100EB0000007002856D5FFE7F748006838210840AA
:100EC000182810D1FFE7F74800688007002809D5E7
:100ED000FFE706988069002804D1FFE707A90120F1
:100EE0000870D5E13DE00698806900281CD0FFE736
:100EF000EC490868012210430860FFF703FC0590E5
:100F0000FFE7E8480068800700280CD4FFE7FFF7F8
:100F1000F9FB0599401A032804D3FFE707A903202A
:100F20000870B5E1EDE71BE0DE4908680122904357
:100F30000860FFF7E7FB0590FFE7DA4800688007E5
:100F400000280CD5FFE7FFF7DDFB0599401A0328C1
:100F500004D3FFE707A90320087099E1EDE7FFE755
:100F6000FFE7FFE7069800784007002800D4CAE0B2
:100F700002A900200870C8480068382108402028CD
:100F800010D1FFE7CA4800688007002809D5FFE7AD
:100F900006988068002804D1FFE707A9012008709F
:100FA00076E1AFE0C0480068C000002810D4FFE739
:100FB000FFE7BD480268012109070A430260006893
:100FC000084001900198FFE702A901200870FFE79F
:100FD000B6480068C00500281DD4FFE7B34908687B
:100FE0000122120210430860FFF78CFB0590FFE717
:100FF000AE480068C00500280CD4FFE7FFF782FB6D
:101000000599401A032804D3FFE707A903200870B5
:101010003EE1EDE7FFE7FFE706988068012806D18B
:10102000FFE7A349086801221043086027E00698FB
:101030008068052818D103E0081002400C10024017
:101040009B49086804221043086008680122104385
:10105000086013E000100240041002400024F40075
:1010600000000020080000209149086801229043F8
:1010700008600868042290430860FFE7FFE7FFE785
:1010800006988068002818D0FFE7FFF73BFB059023
:10109000FFE787480068800700280DD4FFE7FFF7C7
:1010A00031FB0599401A8349884204D3FFE707A919
:1010B00003200870ECE0ECE717E0FFF723FB059056
:1010C000FFE77B480068800700280DD5FFE7FFF7A2
:1010D00019FB0599401A7749884204D3FFE707A90D
:1010E00003200870D4E0ECE7FFE702A800780128AD
:1010F00007D1FFE76C490868012212079043086096
:10110000FFE7FFE7FFE70698C069002800D1BBE0D2
:101110006148006838210840102876D0FFE706981B
:10112000C06902284ED1FFE75D4908680122120616
:1011300090430860FFF7E6FA0590FFE7584800681B
:10114000800100280CD5FFE7FFF7DCFA0599401A6B
:10115000032804D3FFE707A90320087098E0EDE710
:101160004E490868554A1040069B1A6A5C6A224339
:101170009C6A24022243DC6A22431B6B1A431043FD
:101180000860474B1868012214062043186008685D
:10119000120710430860FFF7B5FA0590FFE74048D3
:1011A0000068800100280CD4FFE7FFF7ABFA05992F
:1011B000401A032804D3FFE707A90320087067E05B
:1011C000EDE721E0364908680122120690430860E5
:1011D000FFF798FA0590FFE7314800688001002882
:1011E0000CD5FFE7FFF78EFA0599401A032804D3C0
:1011F000FFE707A9032008704AE0EDE727490868E0
:101200002D4A10400860FFE73DE00698C0690128BC
:1012100004D1FFE707A90120087039E01F480068E2
:1012200003900398032108400699096A884224D153
:10123000FFE70398702108400699496A88421CD14B
:10124000FFE703987F21090208400699896A09028D
:10125000884212D1FFE703981F21490408400699EC
:10126000C96A884209D1FFE7039807214907084066
:101270000699096B884204D0FFE707A9012008708E
:1012800006E0FFE7FFE7FFE707A900200870FFE798
:1012900007A8007808B010BD081002400C100240EA
:1012A00000100240601002403C10024000700040FC
:1012B0005C10024089130000FCFFFEEF8C80C11F10
:1012C00080B582B00190019800F042FA02B080BD72
:1012D000FFE7FEE780B584B0D749039108682E4A3E
:1012E00001921040086000F01BF803990868012281
:1012F00013030293984308600868D2021043086001
:1013000000F00EF8019B029A0399086818400860E3
:1013100008681043086000F003F804B080BDC046C0
:1013200086B0002005900490FFE704990598820795
:1013300089088B18810800207C22D21A884109D3A1
:10134000FFE7FFE7059804990022491C50410491EA
:101350000590EAE706B0704780B582B0F94901917F
:1013600008680D4A009210400860FFF7D9FF019904
:10137000086801221303184308600868D20210436A
:101380000860FFF7CDFF009A0199086810400860D7
:10139000FFF7C6FF02B080BDFFF7FFFF80B586B044
:1013A00005A90020087004A90870FFE704A80078C8
:1013B00007282BDCFFE70598400005A90870E149E4
:1013C0000291086801220392D202019290430860C0
:1013D000FFF7A6FF019A0299086810430860FFF71B
:1013E0009FFF0399052000070903FFF771F9002803
:1013F00006D0FFE705980121084305A90870FFE71B
:10140000FFE70498401C04A90870CFE705A80078FE
:1014100006B080BD10B586B004AC207003A8017082
:10142000029201A8037000F0D3F8002804D1FFE76E
:1014300005A90020087061E004A8007800F062F8B7
:1014400000F040F9002806D1FFE700F0F9F805A9FF
:101450000020087052E003A8007800F053F800F074
:1014600031F9002806D1FFE700F0EAF805A90020CD
:10147000087043E000F0ACF8002804D1FFE705A9AC
:10148000002008703AE004A800780121084300F029
:1014900039F800F017F9002806D1FFE700F0D0F87E
:1014A00005A90020087029E0694600200880FFE7B0
:1014B0006846008801A90978884217DAFFE7FFF734
:1014C0006DFF0146029A68460388D154008801A93D
:1014D0000978491E884203DAFFE7FFF7FBFEFFE7C2
:1014E000FFE70098401C69460880E1E7FFF734FFFA
:1014F00000F0A6F805A901200870FFE705A800780C
:1015000006B010BD80B582B001A908706946002000
:101510000870FFE76846007807282EDCFFE7894956
:1015200008680122D20290430860FFF7F9FE01A883
:1015300000780006002807D5FFE7824908680122E5
:1015400012031043086006E07E4908680122120376
:1015500090430860FFE70198400001A908707949AD
:1015600008680122D20210430860FFF7D9FEFFE7A6
:101570000098401C69460870CCE702B080BDC046A8
:1015800080B586B0002005900490039002900190F1
:10159000FFE70E48026801210A4302600068084024
:1015A00000900098FFE70320C002019011200290F4
:1015B00001200390022004900520000701A9FEF7F6
:1015C0001FFF00F03DF806B080BDC0463410024059
:1015D00080B584B05B4908680122D30218430860D3
:1015E00008681203029210430860FFF799FE0299FF
:1015F00005200007FFF76CF8002804D1FFE703A9D6
:101600000020087013E04F49019108680B4A0092CE
:1016100010400860FFF784FE009A019908681040A6
:101620000860FFF77DFE03A901200870FFE703A80B
:10163000007804B080BDC04614000050FFEFFFFFEB
:1016400080B584B03F490868012213030293984390
:1016500008600868D20210430860FFF761FE029933
:1016600005200007FFF734F8002804D0FFE703A99E
:101670000020087021E0334908680122120301921A
:1016800010430860FFF74CFE019905200007FFF7A3
:101690001FF8002804D1FFE703A9002008700CE020
:1016A0002849086801220092120310430860FFF7DE
:1016B00037FE009803A90870FFE703A8007804B07C
:1016C00080BDC04680B586B01E49039108680122DE
:1016D0000192D202029290430860FFF721FE019B23
:1016E000029A039908681B0304931843086008686A
:1016F00010430860FFF714FE049905200007FEF769
:10170000E7FF00280CD0FFE70E4908680122D2024B
:1017100090430860FFF704FE05A9002008700CE064
:101720000849086801220092D20290430860FFF73E
:10173000F7FD009805A90870FFE705A8007806B036
:1017400080BDC04614000050FFE7FEE770477047B9
:1017500080B584B002900298401E000E002803D08D
:10176000FFE70120039011E00298401E094908603C
:1017700000200190C043032100F056F8019806496B
:101780000860064A072111600390FFE7039804B040
:1017900080BDC04614E000E018E000E010E000E08A
:1017A00080B5FEF7B3FF80BD10B594B007A80290D6
:1017B0003421FEF711FD0020009006900590049062
:1017C0000390012001904002FFF732F8009A01993E
:1017D0000298022307930C020A940B9240240C9463
:1017E0000E930F931092082211924A041292490705
:1017F0001391FFF717FA002803D0FFE7FEF7D9FD92
:10180000FFE7072003900221049100200590069035
:1018100003A8FFF74BF8002803D0FFE7FEF7C9FD48
:10182000FFE714B010BD704770B582B0024601A842
:101830000270009100214056002816D4FFE70024D2
:1018400001A908570322D3431840174A8058095763
:101850008C07E50EFF24AC40A043009CA401E4B239
:10186000AC402043194088501AE001A908780F24A1
:10187000204008380322D34318400A4A80580025E4
:1018800049578D07EE0EFF25B540A843009DAD01D9
:10189000EDB2B54028432140083919408850FFE790
:1018A00002B070BD1CED00E000E400E080B582B045
:1018B000019000F060F80199088101200090FEF786
:1018C0007FFD00F06CF801460098019A5182FEF706
:1018D00077FD00F076F801460098019AD182FEF774
:1018E0006FFD00F080F801460098019A9180FEF7A4
:1018F00067FD00F08AF801460098019A9182FEF790
:101900005FFD00F096F801460098019A5180FEF7BD
:1019100057FD00F0A0F801460098019A1170FEF7FB
:101920004FFD00F0AAF801460098019A1173FEF7E6
:1019300047FD00F0B4F801460098019A5181FEF786
:101940003FFD00F0C0F801460098019AD181FEF7F2
:1019500037FD00F0CAF801460098019A1182FEF79F
:101960002FFD00F0D4F801460098019AD180FEF7CF
:1019700027FD02B080BD80B584B003A80A210170A4
:1019800002AA01920021009111800178AA2002236D
:10199000FFF740FD00990198405E04B080BD80B51E
:1019A00084B003A82C21017002AA019200211180A9
:1019B0000178AA200223FFF72DFD0198008804B0CA
:1019C00080BD80B584B003A80E21017002AA0192E7
:1019D000002111800178AA200223FFF71BFD019846
:1019E000008804B080BD80B584B003A806210170D2
:1019F00002AA0192002111800178AA200223FFF798
:101A000009FD0198008804B080BD80B584B003A8AA
:101A10003221017002AA0192002100911180017807
:101A2000AA200223FFF7F6FC00990198405E04B05B
:101A300080BD80B584B003A80421017002AA019280
:101A4000002111800178AA200223FFF7E3FC01980E
:101A5000008804B080BD80B584B003AA0192002044
:101A6000107002A8022101700178AA200123FFF75B
:101A7000D1FC0198007804B080BD80B584B003A883
:101A80002E21017002AA0192002111700178AA2072
:101A90000123FFF7BFFC0198007804B080BD80B53A
:101AA00084B003A80C21017002AA019200210091C8
:101AB00011800178AA200223FFF7ACFC009901985D
:101AC000405E04B080BD80B584B003A818210170C9
:101AD00002AA0192002111800178AA200223FFF7B7
:101AE00099FC0198008804B080BD80B584B003A83B
:101AF0001A21017002AA0192002111800178AA2006
:101B00000223FFF787FC0198008804B080BD80B5F0
:101B100084B003A80821017002AA0192002111805B
:101B20000178AA200223FFF775FC0198008804B011
:101B300080BD000080B582B000200190FEF7F2FD6C
:101B4000FFF732FEFFF71CFDFFE70448FFF7AEFE8C
:101B50007D208000FEF734FCF7E7C04670000020CF
:101B60000000000000000000000000000000000075
:101B70000000000000000000000000000000000065
:101B8000010000000200000003000000040000004B
:101B90000600000007000000080000000900000027
:101BA000C01B000800000020100000000401000815
:101BB000D01B000810000020800600002001000853
:101BC0000024F400010000000400000000000000F8
:04000005080000C12E
:00000001FF
